:020000040000FA
:1000000078100020650100006D0100006F01000004
:1000100000000000000000000000000000000000E0
:10002000000000000000000000000000710100005E
:1000300000000000000000007301000075010000D6
:1000400077010000770100007701000077010000D0
:1000500077010000770100007701000077010000C0
:1000600077010000770100005531000077010000A2
:10007000770100007701000069230000770100008C
:100080007701000077010000770100007701000090
:100090007701000077010000770100007701000080
:1000A0007701000077010000770100007701000070
:1000B0007701000077010000770100007701000060
:1000C00000F002F800F03EF80CA030C80838241800
:1000D0002D18A246671EAB4654465D46AC4201D180
:1000E00000F030F87E460F3E0FCCB6460126334274
:1000F00000D0FB1AA246AB46334318479C3F000092
:10010000BC3F0000103A02D378C878C1FAD8520731
:1001100001D330C830C101D504680C6070470000BD
:100120000023002400250026103A01D378C1FBD813
:10013000520700D330C100D50B6070471FB51FBDFB
:1001400010B510BD01F0ACF91146FFF7F7FF03F051
:1001500063FC01F0C4F903B4FFF7F2FF03BC01F044
:10016000F5F900000748804707480047FEE7FEE72B
:10017000FEE7FEE7FEE7FEE704480549054A064BB1
:10018000704700006D2F0000C100000078000020C3
:100190007810002078080020780800200022030949
:1001A0008B422CD3030A8B4211D300239C464EE092
:1001B00003460B433CD4002243088B4231D303094E
:1001C0008B421CD3030A8B4201D394463FE0C30900
:1001D0008B4201D3CB01C01A524183098B4201D318
:1001E0008B01C01A524143098B4201D34B01C01A03
:1001F000524103098B4201D30B01C01A5241C3087B
:100200008B4201D3CB00C01A524183088B4201D3E9
:100210008B00C01A524143088B4201D34B00C01AD5
:100220005241411A00D201465241104670475DE0EA
:10023000CA0F00D04942031000D34042534000226D
:100240009C4603098B422DD3030A8B4212D3FC2216
:10025000890112BA030A8B420CD3890192118B4295
:1002600008D3890192118B4204D389013AD09211AB
:1002700000E08909C3098B4201D3CB01C01A524166
:1002800083098B4201D38B01C01A524143098B422F
:1002900001D34B01C01A524103098B4201D30B0118
:1002A000C01A5241C3088B4201D3CB00C01A52413D
:1002B00083088B4201D38B00C01A5241D9D2430824
:1002C0008B4201D34B00C01A5241411A00D2014661
:1002D000634652415B10104601D34042002B00D5CB
:1002E0004942704763465B1000D3404201B500208D
:1002F000C046C04602BD7047704770470246C80FEF
:10030000C00781434B0030B54B405B009B0D20D0B4
:100310001923DB06C91801231B05994220DB03249E
:10032000A40704251346AB400BD3002B04D1EB06E6
:1003300013409B00E34204D40124640700231219F4
:100340005941FF231B0599420BD2C9000143500FAD
:1003500009E0CB0204D501430803024305D0054858
:1003600030BDFF21C905084330BD084607210905F6
:10037000884330BD0000C07FF0B50C46871A9C4111
:100380000D46861A9D4103D2C01BA141D21963417B
:100390000D0D1F0DC94EEC1BAE435CD07F057F0DCC
:1003A0000026002F51D02D05AC46A943DD020123C4
:1003B000ED0A1B051D4320231B1B24D41746E740D1
:1003C000381871412F46E740CC199D402818314616
:1003D00061410C0D27D161449A4013D50023401C84
:1003E000594152000ED14008400001224B005205F5
:1003F000D34207D305204007C14201D5B04900E0F0
:10040000B0493046F0BD6B00002A00D001229A1896
:100410001F23203C1B1B01D5002302E0E5402818C8
:1004200071410C0DD7D0012424050919C407CD074B
:1004300040084908E40F28436144002CD5D000242B
:10044000401C61419A40D0D1CDE76A05520DD9D107
:10045000C90FC907D5E79C4D4E00002801D00124E3
:1004600000E0002434195F00002A01D0012600E0DA
:100470000026BE19954FAC420CD8AE420AD8B44201
:1004800006D001256D05EC42BCD010461946F0BDE2
:100490009942FCD000203946F0BDF0B51FB40C469F
:1004A0000F46811A9F412546861A9D4106D2012595
:1004B000ED076F40401ABC4152187B41210D1E0DC3
:1004C0008D1BAC467D4D8D437ED075056D0D7CD06A
:1004D0000D05AE46AC431B031B0B794D52429D41AB
:1004E000202366469B1B14D31746F7403818002676
:1004F0000090744160462F460741E41900989D40E2
:100500002818664116D4714671189A4025D50123E2
:1005100020E093182A466A415200002B00D0521C5A
:100520001E23203E9B1B002B61DD3541EE17281852
:100530006641E8D5001876415B1C9A4000D3401C08
:100540004B05F3181524E34010D3002B52D071460D
:100550007118D30FC01802D3491C05B0F0BD012398
:10056000DB079A42F9D140084000F6E70122520524
:10057000B21801D1002853D00123CC0ADB029943E1
:10058000891E002A08D1020C03D0020C0004103985
:1005900002E00246002020390023550B05D112024B
:1005A0000823550B01D152010D23550C01D1120125
:1005B0001B1DD50C01D192009B1C150D01D15200C1
:1005C0005B1C2025EE1A01E02CE022E00546F540F8
:1005D00015439840CA1AE10769181305C918002A7B
:1005E000BBDA032040070818C10FC9070FE07146A6
:1005F0006118B2E7F10740080843711071444A00DE
:100600000CD001235B059A42A7D2C90FC90700206D
:10061000A3E74905490D26D1002001E00028F4D1C7
:1006200000219AE7284D6600002801D0012100E052
:10063000002171185F00002A01D0012600E0002689
:10064000BE19224FA94210D8AE420ED8B14208D0EE
:1006500001256D05E94206D01946A8024140104621
:100660007BE79C4201D0214677E70020394674E7BA
:1006700010B50C465C4005D50124E4076340FFF744
:100680000CFF10BDFFF778FE10BD30B40C465C4087
:1006900004D50124E407634030BC6DE630BCFCE6C1
:1006A00070B50124E40761400D465D4002D4FFF7B8
:1006B00063FE70BD6340FFF7F0FE70BDFF070000F2
:1006C0000000F0FF0000F07F0000E0FF0000F87F76
:1006D000F0B5F94D0C091E092C402E402F468BB069
:1006E000A7437DD0B543FCD0002E7AD0002CFCD09F
:1006F0000D465D40ED0F2543AC1BFF25AD0464198D
:100700000894C502440DC9022143500DDC02044384
:100710000120C00701430443D2020191200C110CB7
:1007200000958C46010423468B430A9161460904D7
:10073000E24D8A430991010A7D44491980390978BB
:1007400005464D4301266D18F605751B6943C90C16
:10075000640B891C4C436418B5012C1B250C2E041A
:10076000B4434C434D43210C691889090591009D00
:10077000E90701D00121C90704912C4601996708B6
:10078000CD072F434C08059DE10B4D432D0C294609
:100790006646754302950D4645432E46029D7D1BD8
:1007A000B44100950D465D4301942C0C2F040D4679
:1007B0005543AE462D0C3D43029503947546049C6B
:1007C0002D04641B049406D2029C039D641C002625
:1007D00075410395029401AC70CC009F7D1B01E034
:1007E0003EE162E1B4410904009507910194059945
:1007F000A4086143090C0C464443650BE7040C460E
:1008000066467443A646640B3C43039502947446C3
:10081000049DE4042C1B049406D2029C039D641CDA
:10082000002675410395029401AC70CC009F7D1B9E
:10083000B44101940C465C430095650FE7000C46FB
:100840005443A646640F3C43039502947446049DAA
:10085000E4002C1B049406D2029C039D641C002619
:1008600075410395029401AC70CC009F7D1BB4418F
:10087000AE09AF06049DC900AD092F43049DA4062F
:10088000AD060495079D344369180791059DE10B5A
:100890004D432D0C29466646754302950D4645434A
:1008A0002E46029D7D1BB44100950D465D4301948B
:1008B0002C0C2F040D465543AE462D0C3D4302959E
:1008C00003947546049C2D04641B049406D2029C78
:1008D000039D641C002675410395029401AC70CC05
:1008E000009F7D1BB44101948C050694079C890AE6
:1008F000611800950791019C0599A4086143090CB2
:100900000D464543680BEF040D46644665436C0B8A
:100910003C43049FED047D1BAC4602D20025641CC1
:100920006841009E019D371B85410846584301954B
:100930000C46460FC5005443600F28436546E4004B
:100940002C1B02D20025401C6E41019D3F1AB5416F
:100950002846BD09800628438446A009BF064E02EA
:100960000699A40676180743079D002068410A9956
:10097000079019430020099B00906046FF1913431C
:100980004041E20F64003A43A4460446D71A8C4122
:10099000A04203D90120009020463A46C70F941880
:1009A00040416246D20F2243644664000494009C96
:1009B000BE466400D71AA446044602978C41774687
:1009C000002F01D1A04204D96046401C8446029AFF
:1009D0002046C40FA64694184041049A0546D20FFB
:1009E000224364466400D31A8D417146002901D127
:1009F000A84202D928461A46641C10430122002846
:100A000000D0164361020020079B891904465C410F
:100A10000223002C02DB491813466441089DCE0ACC
:100A20002D145D194B056705E10A2C050D19089970
:100A30003E43C9076940002B08D0934006D30022EB
:100A4000761C5141002B01D1760876001C4A002DFE
:100A500043DB154241D0AA433FD030460BB0F0BD36
:100A600006180D464D41174C7642AC411AD39518E5
:100A70001C465C41134A6D42A24113D30122520528
:100A80004C00D4420AD15C00D4420BD04B4002D57A
:100A900092021143E2E749004908DFE75940C90FD4
:100AA000C90718E000200849D8E7054801420DD1E0
:100AB0000342F7D0F2E700000000FF07783700009C
:100AC0000000F07F0000E0FF0000F87F114859406F
:100AD0000143C01241400020C0E70123089A9B0651
:100AE0009A4205DC032252078918C90FC907B5E7E6
:100AF000052252078918074A1143D2125140ADE727
:100B000070B515461C4602460B4628462146FFF79F
:100B1000DFFD70BDFFFFFF7F30B50346CA02400D09
:100B20001043164D164C0A1502D02043002A06DB4E
:100B3000AA1A002A12DDD040FF2A0BDC30BD520574
:100B4000520D01D140004008AA1A07D4D0404042BB
:100B5000FF2A01DD002030BD0028FCDD4A00002B0B
:100B600001D0012000E00020101801225205D042DF
:100B7000F0D8C817C043604030BD00001E0400001C
:100B8000000000800346CA02400D10B510430A154C
:100B900004D00124E4072043002A05DB0A4CA21AF2
:100BA00004D4D040FF2A00DD002010BD4A00002BF5
:100BB00001D0012000E00020101801225205D0428F
:100BC000F2D8C817C04310BD1E0400001F22030C3A
:100BD00002D10F22000402D0030E03D004E0002053
:100BE000014670470002083A030F01D10001121FAD
:100BF000830F01D18000921E002801DB4000521EAD
:100C0000120551184205C012411810467047C10F15
:100C1000C90700D04042012292071143D6E70121C3
:100C20008907D3E7F0B58B4C0F09254689B0BD4342
:100C30007BD01D092646AE43FAD00E465E402740C3
:100C4000F60F3E43254071D024012142FBD0FF2402
:100C5000AD19A4042D1B039501252D05DB02DB0A2C
:100C6000C9022B43C90A29431E010901040F130FAE
:100C7000050121431701880B820391432D098C46FE
:100C8000A90B1E438A039543B30B9A0396433F096E
:100C9000BA0B9403A74302962E467E430497B646AA
:100CA0004E19D7190C460196544305977E43371BBE
:100CB0007646BF1B3601B646BE0B36190096764601
:100CC000BC043719009C01D3641C00946400002FFD
:100CD00001D001263443029E049F754366467E433D
:100CE0000496760034196E0034190094029C019E1B
:100CF0001C196643751BAE46069465464519059C4E
:100D000005956C43594375460891691A0191049EF3
:100D100001465143A41B0491611A009C0791E1060E
:100D200005D061090122114302E072E06EE0610921
:100D3000089D00272C0A2D066918049D7C412A0A6B
:100D40002D066918019D6241AC0DAD026D1854412C
:100D5000079A910D920255196141029A64465843CF
:100D60005443069B059A5A43121A131B9A0E9B0171
:100D70005B187A41010B0005C3185141220A200675
:100D800044195A419A4200D2491C01204002814232
:100D900003D315230226F64302E014230326F64369
:100DA0002020C51AA9401746AF40DA400A43204622
:100DB0000399D8400914731819055118039A384338
:100DC000D2075140AC4009D00122944006D3002202
:100DD000401C5141002C01D1400840001E4A934262
:100DE00012D3012203989206904207DB05204007A8
:100DF00009181A480143C012414004E0032040078B
:100E00000818C10FC907002009B0F0BD0020F10784
:100E1000FAE705180C464C4111486D42A04115D324
:100E200094181A465A410E48644290410ED301204C
:100E30004A004005824209D35A00824206D35940F3
:100E4000C90F084AC90700201143DDE70020064901
:100E5000DAE700000000FF07FE070000FFFFFF7F4A
:100E60000000E0FF0000F07F0000F87F0121C905CD
:100E70000123411842001B06D3185B0E0AD0C11093
:100E80000722D206891840075242D14201D55200AA
:100E900089187047090208D50146002A03D0C10FFE
:100EA000C9070020704710467047420202D0002058
:100EB00002497047072109050143F4E70000F87F64
:100EC000F0B5FF252D04C609C209FF2704462E40B0
:100ED0000137CB093E4348402A402B400746002AB1
:100EE0006BD0002B69D0AA4267D0AB4265D00028F6
:100EF00000DA32460125ED0529432C430902200280
:100F0000090AD21A4B0C7F24E31A434C000A7C4492
:100F1000E35C7D242404121914145B00A218884297
:100F200001D3521C00E0400049420C465C432411AE
:100F30005C43DB016415E318040A5C43C502200D21
:100F40000C4644436419250A5D432303EC0C0D460B
:100F5000654300030019EB184C42A34201D35B1810
:100F6000401CD4052018002B07D05B00C91804D3FF
:100F7000401C002901D1400840003F2189048A42D9
:100F800009D3002A08DC1106090F04D00321490700
:100F90004018C00FC007F0BD012241001206891899
:100FA0007F2252069142F6D205214907C84201D557
:100FB0009010F0BDFF20C005F0BD002F00DA3246D2
:100FC0001648AA4207D2AB4205D21902090E17D021
:100FD000F80FC007F0BDFF2563002D06AB42F9D81E
:100FE0004900A942F6D8AB4201D1A942F2D0A942A8
:100FF00001D1002101E061004908D0050843F0BD9E
:101000001102090EFBD0FF200243D005F0BD0A46B5
:101010000146104654E70000223000000000C07F67
:101020000102C21504D00123DB071943002A0ADBA1
:101030009E239A1A02D40846D0407047FF224100EE
:101040001206914201D900207047C017C043704773
:1010500010B500F0C3F9006810BD10B5044600F0EB
:10106000BDF9046010BD0000F8B5224C4E00069D8D
:10107000A6420AD8A64201D1002806D15E00A642A7
:1010800003D8A6420AD1002A08D00D242404254200
:101090002CD02946002000F0A5F9F8BD0C461C43D1
:1010A0000CD4994202D0EFF30080F8BD904202D0F8
:1010B000EFF30080F8BDEFF30080F8BD09242407AA
:1010C000E5008B4206D0EFF30080A043591A06D208
:1010D000284304E0101A05D3EFF30080A04380F307
:1010E0000088F8BDEFF30080A043F1E7009500F021
:1010F00091F9F8BD0000E0FFF0B55B4E0C093546F4
:10110000A54377D01D093746AF4373D035403440EF
:101110002F46002901DA05263543002F6BD0534EA8
:10112000314269D0DE020123C9021B05C90AF60A51
:1011300019431E431B11AC46EB1A9C4246DD0127A6
:101140003F04E51B801AAC46B14105D50D46002190
:101150004042A94101256B40CD022D0F05D0CD02A3
:10116000EBD400184941E41BF9E749004908050B95
:101170000D4303D105250005AD04641B002904D1EE
:10118000010B05250005AD04641B00254F0901D1A5
:10119000090410254F0B01D1090208354F0C01D16C
:1011A00009012D1DCF0C01D18900AD1C0F0D01D1FE
:1011B00049006D1C2F04E41B0746AF40BE462027A4
:1011C0007D1BE8400143AC467046B6E74D00054341
:1011D00029D025141F14BD4216DB05460F46554085
:1011E00077403D4309D00D46871AB5410CD392187C
:1011F0007641A4E719E034E02FE06246120C250C9A
:10120000954201D10122534001252D04621B120198
:101210008918DA075140AC4222DA03204007081847
:10122000C10FC9071BE05807FAE706180D464D41E4
:101230000F4C7642AC4114D394185B410C4A644283
:101240009A410ED30A0DD24352050AD001235B0501
:10125000DA4205D34A00024302D0C90FC907002071
:10126000F0BD00200349F0BD0000FF070000F07F43
:101270000000E0FF0000F87FF0B53D4B02460C4651
:101280001C400020002C63D03A4D8B4366D00029CF
:101290006BDB0B0D1D05A94301252D0529430124F9
:1012A000FD33E34001D392184941FF3381339C461B
:1012B0008B02940D0121234389074C42920200279F
:1012C0001B198C105D1A04D42D1B02D42B4665000B
:1012D000491992185B416408F4D15C1A08D40125BD
:1012E000ED07EE175519744102D42A462346491CCE
:1012F00094185B41012292071D46E61B8D4106D4DE
:10130000B61A854103D42B46550034467F1924195B
:101310005B415208802AEFD1234300D00223384694
:101320000A22D04001D3012213438A0510436246AA
:10133000890A12058918002B09D00122D34002D353
:101340000022401C5141002B01D140084000F0BD5B
:101350000B03134307D0C90FC907F0BD080310439F
:1013600003D1002901DB1046F0BD00202946F0BD65
:101370000000F07F0000F87F10B5FF231B0644003B
:101380009C421DD84C009C421AD80346124A0B437B
:1013900007D4401A02D3EFF3008010BDEFF30080B2
:1013A00010BD081A06D2EFF3008001219043C9074F
:1013B000084302E0EFF30080904380F3008810BD03
:1013C0000D231B041A4204D01146002000F00AF835
:1013D00010BD00F059F810BD0000009000487047A3
:1013E00014000020C80212D54803400F002804D082
:1013F000C803C043012188407047EFF3008000011B
:10140000000903210907084380F300887047002082
:101410007047000010B500200249029A00F067F8FA
:1014200010BD00000000F87F70B505464800440D6F
:10143000124B0020002C0AD0634008D09A4206DAF2
:101440006642B24203DD12054019514170BD002CC5
:1014500008D0002B09D0C90FC907002AF6DB084ABB
:10146000114370BDC90FC90770BD28460A03104358
:1014700002D00020034970BD284670BDFF07000060
:101480000000F07F0000F87F10B5024800F02FF850
:1014900010BD00000000C07F00487047140000200D
:1014A0007546FFF7F9FFAE46050069465346C0088A
:1014B000C000854618B020B5FEF75EFE60BC002770
:1014C0004908B6460026C0C5C0C5C0C5C0C5C0C510
:1014D000C0C5C0C5C0C5403D49008D46704710B568
:1014E0000446C046C0462046FEF735FE10BD10B586
:1014F0000C461107090F092904D00A290AD0082926
:101500000CD104E011460820FFF76CFF06E05106FD
:1015100006D501E0510601D50120C007214610BDC6
:10152000D10607D501010909CC084907000E0006BC
:10153000044309E0410F20024907000A0143200E3D
:1015400000061D22D14101430846E7E70149182062
:10155000ABBEFEE726000200704730B5022A0AD271
:101560008369D5000324AC40A343D5000C46AC40AE
:10157000234383610BE0C369941EE5000324AC4060
:10158000A343941EE5000C46AC402343C36130BD29
:1015900041690122114341617047000070B5054661
:1015A0000C46052600BF6248854201D1012000E0BB
:1015B0000020002801D100BFFEE700BF00BFA068E7
:1015C00000280BD0A068102808D0A068202805D0DB
:1015D000A068402802D0A068602801D1012000E066
:1015E0000020002801D100BFFEE700BF00BF6069F6
:1015F000002808D0FF2101316069884203D04900EA
:101600006069884201D1012000E00020002801D15A
:1016100000BFFEE700BF00BF2069012802D020699B
:10162000002801D1012000E00020002801D100BFE6
:10163000FEE700BF00BF2068002805D02068C02852
:1016400002D02068402801D1012000E000200028BD
:1016500001D100BFFEE700BF20683649C96AC02239
:1016600091430143334AD16200BF102000F084FB54
:101670000120C00300F060FBA069296B090A090280
:101680000143296300BFA068202804D0402803D06C
:10169000602807D101E000BF00BF2846A16800F024
:1016A0007BF90BE0A068296810229143014329606F
:1016B00000BF0021284600F06FF900BF00BFE068BE
:1016C000E96A090C09040143E96200BF60692968FD
:1016D0000322120291430143296000BF6068A96A96
:1016E000090C09040143A96200BF2069012806D141
:1016F00000BF286880210843286000BF06E000BFC3
:10170000286880218843286000BF00BF2846FFF773
:101710003FFF00E0761E064800F00EF8002801D1D9
:10172000002EF7D100BF01200149086100BF70BD44
:1017300000B001404002004001460869C007C00FE8
:10174000012250405040704710B5026A8C000123BE
:10175000A3409A43026210BD10B5026A8C000423B4
:10176000A3409A43026210BDF8B506460D461446E2
:1017700005270120009000BF8648864201D1012044
:1017800000E00020002801D100BFFEE700BF00BF3D
:101790002068002814D02068102811D02068202844
:1017A0000ED0206830280BD02068402808D0206850
:1017B000502805D02068602802D02068702801D108
:1017C000012000E00020002801D100BFFEE700BF9B
:1017D00000BFA069012802D0A069002801D1012022
:1017E00000E00020002801D100BFFEE700BF00BFDD
:1017F000E068002802D0E068022801D1012000E062
:101800000020002801D100BFFEE700BF00BF6069D3
:10181000012802D06069002801D1012000E00020E9
:10182000002801D100BFFEE700BF00BF606A0128A9
:1018300002D0606A002801D1012000E000200028C9
:1018400001D100BFFEE700BF00BFA068012802D0A1
:10185000A068002801D1012000E00020002801D16B
:1018600000BFFEE700BF00BF6068012802D06068CB
:10187000002801D1012000E00020002801D100BF94
:10188000FEE700BF00BF206A002804D0FF2101311D
:10189000206A884201D1012000E00020002801D107
:1018A00000BFFEE700BF00BFA06A002804D00121EE
:1018B0004902A06A884201D1012000E000200028EE
:1018C00001D100BFFEE700BF00BF2069002802D0A1
:1018D0002069082801D1012000E00020002801D162
:1018E00000BFFEE700BF29463046FFF72DFF29461F
:1018F0003046FFF731FFE068316AAB0002229A40C0
:101900009143AB0002469A401143316200BF206A06
:1019100071686B00FF2201329A4091436B000246CE
:101920009A401143716000BFA06A71686B00012288
:1019300052029A4091436B0002469A4011437160F3
:1019400000BF2069316AAB0008229A409143AB0086
:1019500002469A401143316200BF2A4600213046B8
:10196000FFF7FBFD22462946304600F0D3FE304605
:10197000FFF70EFE00E07F1E0648FFF7DDFE0028A1
:1019800001D1002FF7D100BF01200249086100BF3B
:101990000098F8BD00B00140026860239A430A43F2
:1019A0000260704706480069042108430449086141
:1019B0000846006901210843014908617047000099
:1019C00000E000E0826A8BB29A438262704702684C
:1019D0008BB29A430260704782688BB29A438260EE
:1019E000704742688BB29A4342607047026A8BB27A
:1019F0009A43026270470000F8B506460C4600277D
:101A0000002500BF654886420BD0644840308642BE
:101A100007D062488030864203D06048C03086429A
:101A200001D1012000E00020002801D100BFFEE725
:101A300000BF00BF2068002805D9594920688842A6
:101A400001D8012000E00020002801D100BFFEE7FE
:101A500000BF00BF6068032808D06068002805D078
:101A60006068012802D06068022801D1012000E0EE
:101A70000020002801D100BFFEE700BF00BFA06822
:101A8000012802D0A068002801D1012000E0002038
:101A9000002801D100BFFEE700BF00BFE0680028BA
:101AA00002D0E068012801D1012000E000200028D8
:101AB00001D100BFFEE700BF80203A49896A014397
:101AC000384A916200BF62E00121B94020680840B5
:101AD0000546002D5AD06068032812D129463046A9
:101AE000FFF775FF29463046FFF77BFF2946304652
:101AF000FFF772FF00BFB06AA9B20843B06200BF2F
:101B00002EE029463046FFF75DFF6068002806D1C9
:101B100000BF3068A9B20843306000BF03E0294627
:101B20003046FFF754FFA068002804D1294630460C
:101B3000FFF752FF06E000BFB068A9B20843B060EB
:101B400000BF00BFE068002806D000BF7068A9B2DF
:101B50000843706000BF03E029463046FFF741FFAD
:101B6000606802280DD12069012806D100BF306AC3
:101B7000A9B20843306200BF03E029463046FFF7B0
:101B800035FF29463046626800F00EF87F1C206859
:101B9000F840002898D10120F8BD0000000C00405A
:101BA000FFFF00000002004030B5C3680C464C4304
:101BB00065006419A3430C464C4354432343C3605C
:101BC00030BD0000F0B587B005460C4600200690F9
:101BD000002600BF5148854201D1012000E00020CD
:101BE000002801D100BFFEE700BF00BF2068002829
:101BF0000DD0012109042068884208D049002068DE
:101C0000884204D0032109042068884201D10120C0
:101C100000E00020002801D100BFFEE700BF00BFA8
:101C20006068002805D03E496068884201D80120DC
:101C300000E00020002801D100BFFEE700BF012026
:101C4000000600F089F8012000053649C96A014301
:101C5000344AD16200BF20681146C96A03221204C7
:101C6000914301432F4AD16200BF2068002807D06A
:101C70009113401A08D0401A0AD0401A10D10BE034
:101C800000F0BEF806900CE000F088F9069008E03D
:101C900000F0CEF9069004E000F0A2F9069000E012
:101CA00000BF00BF606841000698FEF777FA461E45
:101CB000304669691C4A114002041143696100BF42
:101CC00000BF6969490A49020143696100BFF00523
:101CD000C00DFEF7A4FF002201239B070191009095
:101CE000FEF7F6FC0022114B03910290FEF7C0FCB8
:101CF00005910490FEF746FF0746E869400A400256
:101D00003843E86100BF00BF044800680121084370
:101D10000249086000BF012007B0F0BD0024014067
:101D200040420F0040020040FFFF00FE0000E03F85
:101D300010B5FFF737FE10BD0249C96A0143014AD9
:101D4000D1627047400200400249C96A0143014A1A
:101D5000D1627047400200400249096B0143014AC9
:101D600011637047000200400249096B0143014AB8
:101D700011637047000200400249496B0143014A68
:101D8000516370470002004010B5002400BF1B489B
:101D9000C06807210902084005221202811A9042F8
:101DA00018D006DC00280DD001218902401A1DD16F
:101DB0000CE0C81FF938002810D0FF38013800287F
:101DC00014D10FE000F034F9044613E000F030F9CC
:101DD00044080FE000F02CF984080BE000F028F92B
:101DE000C40807E000F024F9040903E000F020F93A
:101DF000044600BF00BF204610BD000000020040A6
:101E000010B5002400BF1B48C06807210904084022
:101E100005221204811A904218D006DC00280DD049
:101E200001218904401A1DD10CE001200004081A88
:101E300010D001210904401A14D10FE0FFF7A4FFCC
:101E4000044613E0FFF7A0FF44080FE0FFF79CFFF4
:101E500084080BE0FFF798FFC40807E0FFF794FF42
:101E6000040903E0FFF790FF044600BF00BF2046CF
:101E700010BD00000002004010B5002400BF1B4848
:101E8000C0680721C90408400522D204811A904283
:101E900018D006DC00280DD001214905401A1DD1BB
:101EA0000CE00120C004081A10D00121C904401A16
:101EB00014D10FE0FFF768FF044613E0FFF764FF5B
:101EC00044080FE0FFF760FF84080BE0FFF75CFFBA
:101ED000C40807E0FFF758FF040903E0FFF754FFC9
:101EE000044600BF00BF204610BD000000020040B5
:101EF00070B50024002500BF2648806902210840F3
:101F0000002802D0022807D103E000F047F8044679
:101F100006E02148046803E000F040F8044600BFF2
:101F200000BF00BF1B488069702108400107090FEE
:101F300000291FD10011030001F05FF90805060810
:101F40000A0C12141A1C16E0640814E0A40812E02B
:101F5000E40810E00C212046FEF720F904460AE0D0
:101F6000240908E018212046FEF718F9044602E08B
:101F7000640900E000BF00BF00BF064880697F2100
:101F800009040840000C451C2046684304462046CE
:101F900070BD0000000200400C000020002000BFC7
:101FA0000B4909690F2212041140002906D00122B1
:101FB0001204891A04D0891A06D103E0054805E005
:101FC000054803E0054801E0024800BF00BF704734
:101FD0000002004000127A000024F40000366E0176
:101FE000002000BF0D49496A032212041140002954
:101FF00008D001221204891A06D0891A06D0891A3B
:1020000008D105E0064807E0064805E0064803E079
:10201000064801E0024800BF00BF70474002004090
:1020200000093D0040420F0020A1070090D00300AE
:1020300010B5002400BF1648C0684007400F0300D9
:1020400001F0DBF80805090C1E10141B171EFFF722
:10205000A5FF044618E00F48046815E0FFF748FFA5
:10206000044611E0FFF7BCFF04460DE00A4804688F
:102070000AE000F013F8044606E07D24240203E0A1
:10208000FFF78CFF044600BF00BF204610BD0000D4
:10209000000200400C0000200800002000BF05489E
:1020A000C06808210840002801D103487047034850
:1020B000FCE7000000020040006CDC020087930394
:1020C000F8B505460C46002700200090002600BF0A
:1020D000A048854208D0A048854205D09F48854247
:1020E00002D09F48854201D1012000E00020002855
:1020F00001D100BFFEE700BF00BF2068002814D058
:102100002068042811D0206808280ED020680C28E8
:102110000BD02068002808D02068012805D020684E
:10212000022802D02068032801D1012000E000200D
:10213000002801D100BFFEE700BF00BFA068002853
:1021400008D0A068402805D0A068802802D0A068E8
:10215000C02801D1012000E00020002801D100BFEB
:10216000FEE700BF00BF2069002805D020691028C5
:1021700002D02069202801D1012000E000200028A1
:1021800001D100BFFEE700BF00BFE068002804D017
:10219000FF210131E068884201D1012000E00020E8
:1021A000002801D100BFFEE700BF00BF6069002822
:1021B00008D06069022805D06069012802D06069F2
:1021C000032801D1012000E00020002801D100BF38
:1021D000FEE700BF5F48854228D120686149C96A8F
:1021E0008908890001435F4AD16200BF2068002846
:1021F00006D0012808D002280AD0032810D10BE00D
:10220000FFF7FEFD00900BE0FFF7C8FE009007E02F
:10221000FFF70EFF009003E0FFF7E2FE009000BF23
:1022200000BF61680098FDF7B9FF461E4A48854225
:1022300028D120684B49C96A0C2291430143494A7D
:10224000D16200BF2068002806D0042808D00828E2
:102250000AD00C2810D10BE0FFF7D2FD00900BE064
:10226000FFF79CFE009007E0FFF7E2FE009003E01E
:10227000FFF7B6FE009000BF00BF61680098FDF751
:102280008DFF461E3348854206D18015FFF76CFD51
:10229000A815FFF759FD26E02F48854206D14015C5
:1022A000FFF762FD6815FFF74FFD1CE02B488542E4
:1022B0000BD18014FFF758FDFFF7DEFD0090616839
:1022C0000098FDF76BFF461E0DE0254885420AD1B8
:1022D0004014FFF749FDFFF7CFFD009061680098BB
:1022E000FDF75CFF461E207DC007C00F002806D00A
:1022F00000BF286801210843286000BF00BF0221F9
:1023000060690840002805D000BF2868084328609D
:1023100000BF00BF00BFA869000C00043043A861E3
:1023200000BFE0682968FF22013291430143296020
:1023300000BFA0682968C02291430143296000BF03
:1023400020692968302291430143296000BF012799
:102350003846F8BD001C01400020014000A00140AB
:1023600000A401404002004000BF0A48806B0221E7
:102370000840400800280CD000BF0648C06B084049
:102380004008002805D000BF01200249C86300BFF3
:1023900000BF704700A8014010B590B0044604206B
:1023A0000B9002200C9000200D900E9001200F90B9
:1023B0000BA91248FFF720FB10200B9002200C9075
:1023C00000200D900E900F900BA90C48FFF714FB06
:1023D0006020009001200190029000200390049062
:1023E000059006900794089009900A906A4600218B
:1023F0000348FFF7B9F910B010BD0000400C0040D1
:1024000000B0014010B590B0044608200B900220A7
:102410000C9000200D900E9001200F900BA91248F7
:10242000FFF7EAFA20200B9002200C9000200D907C
:102430000E900F900BA90C48FFF7DEFA6020009079
:1024400001200190029000200390049005900690D6
:102450000794089009900A906A4601210348FFF703
:1024600083F910B010BD0000400C004000B00140E6
:1024700010B590B0044640200B9002200C90002034
:102480000D900E900F900BA91248FFF7B5FAFF20A0
:1024900001300B9002200C9000200D900E90012036
:1024A0000F900BA90B48FFF7A7FA602000900120BE
:1024B00001900290002003900490059006900794EC
:1024C000089009900A906A4602210348FFF74CF9E8
:1024D00010B010BD400C004000B0014000B587B006
:1024E000002000903F200190002002906320039084
:1024F0000120049000200590069069460248FFF7ED
:102500004DF807B000BD000000B0014010B55520E7
:102510004449896B090A09020143424A916300BF99
:102520000020114609690F221204914301433D4ADC
:10253000116100BF00BF1046006901210843114628
:10254000086100BF00BF08468069400840008861FC
:1025500000BF00208969022291430143314A916101
:1025600000BF3020114689697022914301432D4AF2
:10257000916100BF3F20114689697F221204914377
:1025800002041143274A916100BF00201146896966
:10259000082291430143234A916100BF00BF1046C6
:1025A0008069012108431146886100BF00BF00BF58
:1025B0001C48806980210840C0090028F7D002200B
:1025C00019490968890889000143174A116000BF49
:1025D00000BF1449C968C908C9000143114AD16044
:1025E00000BF00201146C96807221202914301432F
:1025F0000C4AD16000BF00BF1146C968072212040F
:1026000091430143074AD16000BF00BF1146C9682A
:102610000722D20491430143024AD16000BF00F077
:10262000DDFB10BD000200400010004010B5FFF7B8
:1026300055FF0020FFF7B0FE0020FFF7E3FE00206B
:10264000FFF716FF00F004F800F030F810BD0000AE
:1026500000B587B00120C002029002200390002044
:1026600004900590069002A90D48FFF7C5F90120D6
:102670000003029002200390002004900590069031
:1026800002A90748FFF7B8F90120000400900548A7
:10269000019069460448FFF795FA07B000BD0000B5
:1026A000000C0040409C00000024014000B58BB0AD
:1026B0000120400306900220079000200890099016
:1026C0000A9006A91148FFF797F9012080030690A8
:1026D000022007900020089009900A9006A90B4854
:1026E000FFF78AF900200090E1204002019040208D
:1026F000029000200390102004900320059069466A
:102700000348FFF7DDFC0BB000BD0000000C0040EB
:10271000001C0140F8B504460D4616460120009005
:102720002846316802280AD2A269C7007023BB403C
:102730009A43C3000F469F403A43A2610BE0E2690F
:10274000831EDF007023BB409A43831EDB000F46CD
:102750009F403A43E26100BF706A012812D12846C7
:10276000022806D2A169C30080229A401143A161C8
:1027700006E0E169821ED30080229A401143E161A4
:1027800000BF12E02846022806D2A169C3008022B9
:102790009A409143A16106E0E169821ED300802244
:1027A0009A409143E16100BF00BF7069012812D1D6
:1027B0002846022806D2A169C30004229A40114388
:1027C000A16106E0E169821ED30004229A40114310
:1027D000E16100BF12E02846022806D2A169C300C9
:1027E00004229A409143A16106E0E169821ED30070
:1027F00004229A409143E16100BF00BFB069012803
:1028000012D12846022806D2A169C30008229A40A4
:102810001143A16106E0E169821ED30008229A40BB
:102820001143E16100BF12E02846022806D2A169E7
:10283000C30008229A409143A16106E0E169821E2B
:10284000D30008229A409143E16100BF00BFB06805
:10285000012808D100BF206AAA0004219140084342
:10286000206200BF03E029462046FEF775FF70682E
:10287000012808D100BF206AAA0001219140084325
:10288000206200BF03E029462046FEF75DFF002DD1
:1028900006D0012D0CD0022D12D0032D20D117E02F
:1028A000F069616B090C09040143616300BF1AE020
:1028B000F069A16B090C09040143A16300BF12E098
:1028C000F069E16B090C09040143E16300BF0AE010
:1028D000F069216C090C09040143216400BF02E086
:1028E0000020009000BF00BF0098F8BD00BF09495C
:1028F0004969490A49020143064A516100BF00BFC4
:1029000000BF044989680222114049080029F7D014
:1029100070470000001C014010B50346002404E08D
:10292000185DFFF7E3FF601CC4B2185D0028F7D103
:1029300010BD0000F7B598B01A98FEF797FA079106
:10294000069001F0ADF80B910A901898FEF78EFAF8
:10295000099108900B9B0A9AFEF764F90F910E906B
:102960001A98FEF783FA0791069000F0BFFF0B91CB
:102970000A901998FEF77AFA099108900B9B0A9A27
:10298000FEF750F90D910C900F9B0E9AFDF77DFE0E
:1029900011911090FDF7B2FC16901A98FEF766FAA6
:1029A0000791069000F0A2FF0B910A901898FEF78D
:1029B0005DFA099108900B9B0A9AFEF733F90F9183
:1029C0000E901A98FEF752FA0791069001F068F8F7
:1029D0000B910A901998FEF749FA099108900B9B00
:1029E0000A9AFEF71FF90D910C900F9B0E9AFDF7B6
:1029F0003FFE11911090FDF781FC1590E8480068AA
:102A0000FEF734FA0F910E901599084601F066F919
:102A100008901699084601F061F90790089901F0AD
:102A200017F90990FEF722FA0B910A900B990A9870
:102A300001F084F80D910C900F9B0E9AFDF748FE63
:102A400011911090FDF75AFC17901798FEF70EFAA7
:102A5000D44AD54B1191109001F0C6F801D2D34859
:102A600017901798FEF702FACE4AD14B11911090A9
:102A700001F088F801D2CF4817901A98FEF7F6F9BE
:102A8000CD4ACE4B0D910C90FDF7F2FD0F910E90BB
:102A9000FDF734FC119000F001FF1A901A98FEF730
:102AA000E5F9C74AC74B0D910C90FDF711FE0022C6
:102AB000C54B0F910E90FDF7DBFD11911090FEF7C5
:102AC0002BF807461798FEF7D1F90F910E901A9838
:102AD000FEF7CCF9079106903846FEF798F8B84A09
:102AE000B84B03910290FEF79DF805910490079B67
:102AF000069AFDF7CAFD0991089000F0D1FFB34A8C
:102B0000B34B0B910A90FEF78DF80D910C900F9B33
:102B10000E9AFEF787F811911090FDF7EFFB1390D6
:102B20001798FEF7A3F90F910E903846FEF76FF84D
:102B30000022A54B01910090FDF7A7FDA04AA14BF3
:102B400003910290FEF76EF8079106901A98FEF72F
:102B50008DF905910490079B069AFDF796FD099162
:102B6000089000F09DFF994A994B0B910A90FEF74F
:102B700059F80D910C900F9B0E9AFEF753F8119196
:102B80001090FDF7BBFB12907F20C005139901F058
:102B900029F91190129901F025F914903B0000F0E9
:102BA0002CFB07C50525456585A5C50001218907BD
:102BB0001498FEF785F911901299139801F048F8CE
:102BC0001090119901F044F80446012189071498E6
:102BD000FEF776F91190129901F03AF805460121B5
:102BE00089071498FEF76CF90646A3E001218907CE
:102BF0001498FEF765F91190139901F029F804462D
:102C0000012189071498FEF75BF911901299139826
:102C100001F01EF81090119901F01AF805460121F3
:102C200089071498FEF74CF9064683E001218907CD
:102C30001498FEF745F90446012189071498FEF718
:102C40003FF911901299139801F002F81090119920
:102C500000F0FEFF0546012189071498FEF730F9C0
:102C60001190129900F0F4FF064663E001218907F4
:102C70001498FEF725F90446012189071498FEF7F8
:102C80001FF91190139900F0E3FF05460121890710
:102C90001498FEF715F911901299139800F0D8FFC7
:102CA0001090119900F0D4FF064643E001218907F6
:102CB0001498FEF705F91190129900F0C9FF044627
:102CC000012189071498FEF7FBF8054601218907C1
:102CD0001498FEF7F5F811901299139800F0B8FFC8
:102CE0001090119900F0B4FF064623E001218907F6
:102CF0001498FEF7E5F811901299139800F0A8FFC8
:102D00001090119900F0A4FF04460121890714983E
:102D1000FEF7D6F80546012189071498FEF7D0F88A
:102D20001190139900F094FF064603E0002400255B
:102D3000002600BF00BF2749204600F0CFFF1090BB
:102D4000FEF76EF911902448406B010C09041198AC
:102D500001432148416300BF1E49284600F0BEFFE1
:102D60001090FEF75DF911901B48806B010C09046F
:102D7000119801431848816300BF1649304600F09E
:102D8000ADFF1090FEF74CF911901348C06B010C89
:102D90000904119801431048C16300BF1BB0F0BD86
:102DA00004000020105839B4C876E23F46B6133FFD
:102DB000C876E2BF46B613BFF4D64354FB21F93FB1
:102DC00040AF2D3852C1F03F0000F03F6B6058E833
:102DD0007AB6FB3F0000C84200B0014010B556482B
:102DE000C0684007400F030000F007FA084C050ACE
:102DF0004C0F2F34394C51480068514908605BE052
:102E000000F046F94E49086056E04B484030406AB1
:102E10008003800F002806D0012808D002280AD09D
:102E2000032810D10BE04748454908600BE04648AD
:102E30004349086007E045484149086003E04448C9
:102E40003F49086000BF00BF36E0424800683C4987
:102E5000086031E07D200002394908602CE03648E6
:102E6000C0680007C00F002802D0012808D103E085
:102E700039483349086003E038483149086000BFE9
:102E800000BF19E02C4800690003000F00280DD096
:102E9000012802D0022808D103E0314828490860FF
:102EA00008E030482649086004E000BF2E48244965
:102EB000086000BF00BF00BF00BF1F48C0684005DA
:102EC000400F030000F099F908050A0F14191F2597
:102ED0002B311B4800681A4908602BE0184800682D
:102EE0001749086026E0164800681549086021E087
:102EF00013480068124908601CE011480068400847
:102F00000F49086016E00E48006880080C49086008
:102F100010E00B480068C008094908600AE008484A
:102F2000006800090649086004E005480068044993
:102F3000086000BF00BF10BD000200400C00002070
:102F40001000002000093D0040420F0020A10700B2
:102F500090D0030008000020006CDC02008793037F
:102F60000024F40000366E0100127A0010B5002033
:102F70004249886105204006C8600846806A802171
:102F800008433E4988623E48C0680F2189040843CF
:102F90003B49C8600020394948620846406A05211B
:102FA00009020843354948627D24240100E0641E7B
:102FB000002CFCD13148C0680121C90608432F49C3
:102FC000C860AA20886301202E4908600E2048604E
:102FD0000320C90448602C480068000C2A4909886D
:102FE000C94389B2884202D12748006800E04020E6
:102FF0004006400E2149486123484068000C2249A0
:103000008988C94389B2884202D11F48406800E0DC
:1030100040204006400E1949403188621A48403825
:10302000006A000C18494039098CC94389B28842AA
:1030300003D115484038006A00E08020C0B20F4933
:1030400008620F484068FF21813108430C494860FD
:103050000A48C06A102108430849C8620B48C06B7F
:10306000091508430949C8630448C06A1021884308
:103070000249C862FFF7B2FE10BD00000002004026
:10308000C00C004000A8014040FBFF1F00040040AE
:1030900010B500242A4880698007C00F002802D09C
:1030A000012817D113E0264800690003000F00280B
:1030B00009D0012802D0022804D101E0214C04E00B
:1030C000214C02E000BF214C00BF00BF02E02048BD
:1030D000046800BF00BF1A4880694006400F030023
:1030E00000F08BF8080507090B0D13151B1D00BF19
:1030F00015E0640813E0A40811E0E4080FE00C21D7
:103100002046FDF74BF8044609E0240907E01821A2
:103110002046FDF743F8044601E0640900BF00BF04
:10312000074880694002400E401C444304488069BF
:103130000007C00F002800D06400204610BD00002A
:10314000000200400024F40000366E0100127A00F4
:103150000C00002000BF1A484068FF2101310840E0
:10316000000A00280BD000BF154880680840000AFC
:10317000002804D000BF124800691249087000BF3F
:103180000F484068C007C00F012148404840002850
:1031900014D000BF0A4880680840484048400028D2
:1031A0000CD000BF01200649886000BF00BF084660
:1031B000406840084000486000BF00BF7047000002
:1031C000001C014000000020F0B4040C8BB2264625
:1031D00082B25E430D0C1046370C584336048019FA
:1031E0000021794116466E43370C36048019794127
:1031F00026466E438919F0BC704730B47446641E8D
:103200002578641CAB4204D3635D5B00E31830BCDB
:1032100018471D46F8E700004900CA0202431000A3
:1032200000D004204A0D01D001221043044A490D68
:10323000914201D102210843012800D105207047A5
:10324000FF070000F7B596B014460021A160D160D9
:10325000179909914D00CD496D088D4205DC1799EC
:1032600061602060002019B0F0BDC949C94E8D428F
:1032700038DAD32709997F050029C74A17993346B9
:1032800017DDFDF702FAB54206D0C44AC44BFDF77C
:10329000FCF96160206009E03A46C14BFDF7F5F9A1
:1032A000C04AC14BFDF7F1F961602060012019B0FF
:1032B000F0BDFDF7DDF9B54206D0B84AB84BFDF7D1
:1032C000D7F96160206009E03A46B54BFDF7D0F9C7
:1032D000B44AB54BFDF7CCF9616020600020C043D3
:1032E00019B0F0BDB1498D42179977DC4900490802
:1032F0000746AF4AAF4B0491FDF794FC0022AE4B5A
:10330000FDF7B6F9FDF708FC0A90FDF780FCA24A2C
:10331000334603910290FDF785FC3A46049BFDF786
:10332000BFF906460F469D4A9D4B03990298FDF74B
:1033300079FC2A0D01250C9232463B46FDF7B0F987
:1033400061602060032D39D04800410D0C98401A6F
:10335000690169181139814230DA984928017944A4
:1033600008960D900818049743680268039902981C
:10337000FDF758FC02460B46079106900499089801
:10338000FDF783F906460F46049B089AFDF788F976
:10339000079B069AFDF779F90591894904907944CC
:1033A0000D984018C368826803990298FDF73AFCAB
:1033B000059B049AFDF769F96D1CBDE70998002883
:1033C00009DA01226068D207504060600A9819B09B
:1033D0004042F0BD02E00A9819B0F0BD0903012295
:1033E000090B12050E908918179810914000754925
:1033F000400D40184111C006C00E0D9113902021C0
:10340000081A1490002006900525079013980028AC
:103410000D980CD0401982006B4878448758139956
:103420008F40101841681498C1400F4304E04019C0
:10343000810066487844475810993846FFF7C4FE23
:1034400006460A9138460E99FFF7BEFE8A190A9B76
:103450008A4201D2012100E00021C9188C46AF0048
:10346000694679188B684E68C318834201D20120DF
:1034700000E0002096193618002802D0964202D9A2
:1034800003E0964201D2012000E0002062461218BB
:103490004E6068468B60C25128466D1E0028B5DC20
:1034A0000121029849074018800F1390029805994E
:1034B0008000039E049D0B91FDF7A9FB0746304653
:1034C0000891FDF7ACFB1D22D243FDF7ADFF109034
:1034D0000F912846FDF7A3FB3D22D243FDF7A4FF41
:1034E0000E900D910B98FDF79AFB5D22D243FDF7EC
:1034F0009BFF0B910C900D9B0E9AFDF7B9F80F9B5B
:10350000109AFDF7B5F83A46089BFDF7B1F800258B
:103510000E463A462846089BFDF7B7F80F9B109ACF
:10352000FDF7B3F80D9B0E9AFDF7AFF80B9B0C9AC5
:10353000FDF7B6F8264A274BFDF774FB07460D91B9
:10354000254A264B31462846FDF76CFB3A460D9B33
:10355000FDF78EF80F4615220C9092061D4B314652
:103560002846FDF75FFB3B460C9AFDF781F8179A5A
:10357000002A05DA139A524213920122D2075140CF
:1035800061602060139819B0F0BD0000FB21E93F95
:103590007CD90240FB21F93F000040543163621A9C
:1035A00061B4D03D7370032E8A19A33BFB213941CE
:1035B00083C8C96D305FE43F0000E03F460C000067
:1035C000060C00000BFCFFFFBA0B0000A00B000074
:1035D000182D4454FB21F93D3326A611460B113C0E
:1035E000F0B51FB44E00F9207608800584B00F4670
:1035F000864204DA0498FDF78FFA002838D0049A3E
:103600003B4610461946FDF70DFB044602462C4882
:103610000D460B460621784400F05CF822462B4606
:10362000FDF700FB019100903946079B069A04982C
:10363000FDF7F8FA0746029120462946019B009AB9
:10364000FDF7F0FA3A46029BFDF71FF80746002205
:103650000091D24320462946FDF7E6FE194A9642DC
:103660000ADA3A46009BFDF710F80022164B23E0D9
:103670000020154909B0F0BD144A964202DD00242D
:10368000134D03E001225205B51A002422462B46B1
:10369000FCF7FBFF0646019122462B4600200A4913
:1036A000FCF7F3FF0D4604463A463046009B01996D
:1036B000FCF7EBFF22462B46FCF7F2FF09B0F0BD0A
:1036C0005E0900003333D33F0000F03F0000E93FC4
:1036D0000000D23FF8B504464F1EC8000838211834
:1036E00015461E46086849683A4606239A4310D094
:1036F0002A463346FDF796FA3A46D200083AA3180E
:103700001A687F1E5B68FCF7B3FF06223B469343B3
:10371000EED1022F23D0042F11D0062F2FD12A460D
:103720003346FDF77FFAE36AA26AFCF7A1FF2A4657
:103730003346FDF777FA636A226AFCF799FF2A4657
:103740003346FDF76FFAE369A269FCF791FF2A4659
:103750003346FDF767FA63692269FCF789FF2A4659
:103760003346FDF75FFAE368A268FCF781FF2A465B
:103770003346FDF757FA63682268FCF779FFF8BD16
:10378000F0B51FB4054648000C46F92140088905EC
:1037900086B088420BDA28462146FFF73DFD042813
:1037A00001D100F071F8284621460BB0F0BD2A4641
:1037B000234610461946FDF735FA06460F462A46B7
:1037C0002346FDF72FFA00902548019132463B46EB
:1037D00005217844FFF77EFF02901098039100289E
:1037E00029D0204A204B01990098FDF71BFA04903C
:1037F000059168460FC8FDF715FA00220191009067
:10380000D24309990898FDF70FFE019B009AFCF737
:103810003CFF32463B46FDF705FA099B089AFCF748
:1038200034FF059B049AFCF730FF2A462346FCF739
:1038300037FF0BB0F0BD0B4630463946029AFDF714
:10384000F1F9084A084BFCF713FF019B009AFDF7BA
:10385000E9F92A462346FCF70BFF0BB0F0BD000048
:103860009A080000495555555555C5BF10B5012258
:10387000FDF7DAFD10BD002210B5134610461146C3
:10388000FCF726FF10BD0000034A10B50020110709
:10389000FDF7CAFD10BD000001FDFFFFF1B582B0CC
:1038A0000298FDF7E3FA04460E4A0F4B00F06AF85F
:1038B0000646FCF723FD01900021019800F066FA0E
:1038C00003D80198FDF7D2FA07E00198FDF7CEFA88
:1038D0000646044A044BFCF7CBFE0446FCF70EFDFB
:1038E000FEBD0000EA2E4454FB21194000B54A00F9
:1038F000224B520887B09A4202DC0022134625E090
:103900001F4B9A4208D1002808D10120FDF7A5FBE2
:10391000FFF7B1FF07B000BD9A4203DBFFF7A6FF38
:1039200007B000BD02AAFFF78DFC8107890F0BD0FD
:10393000012001290ED0022916D0009002A80FC83C
:10394000FFF71EFF07B000BD02A80FC8FFF748FE33
:1039500007B000BD009002A80FC8FFF711FF0122B9
:10396000D207514007B000BD02A80FC8FFF738FECC
:103970000122D207514007B000BD0000FB21E93F02
:103980000000F07F70B514461D460E46002801D099
:10399000012100E0002131434A001E4952088A1AE1
:1039A000D20F15D1002C01D0012200E000222A43C1
:1039B00052005208891AC90F0AD10122710052051A
:1039C000D14201D100281FD0690001D1002C1BD0A9
:1039D00022463146FDF790FB0246080DC0434005E4
:1039E00010D0F00FCB0FC007DB0798420AD06D0054
:1039F000CB0F6D08DB071D430B4620462946FCF71D
:103A00004FFE0246104670BD0120FDF726FBFFF772
:103A100032FF70BD0000F07F1CB500261848194920
:103A20000860FEF785F9FEF771FDFEF7FFFD00BFA8
:103A300015480068012108431349086000BF00BF12
:103A40000846406C0121C90308430F49486400BF80
:103A50000EA0FEF761FF11E0324600210D48FEF78F
:103A600069FF3046FDF702FA04460B4A0B4BFCF7A0
:103A7000FFFD01910090FCF741FC0646ECE70000D9
:103A80000000C0410400002000B0014068656C6C7B
:103A90006F0000009A99993F9A9999999999B93F1D
:103AA00000B54A00234B520887B09A4203DC00223B
:103AB0001346009229E0204B9A4208D1002808D1F1
:103AC0000120FDF7CAFAFFF7D6FE07B000BD9A4203
:103AD00003DBFFF7CBFE07B000BD02AAFFF7B2FB86
:103AE0008107890F012000290CD0012911D002295A
:103AF00015D002A80FC8FFF773FD0122D20751406D
:103B000007B000BD009002A80FC8FFF739FE07B04C
:103B100000BD02A80FC8FFF763FD07B000BD00900D
:103B200002A80FC8FFF72CFE0122D207514007B0B0
:103B300000BD0000FB21E93F0000F07FF8B506461C
:103B40000C46FDF799FB051E0F4600D001200143EE
:103B500049000B484908411AC90F0DD0002E01D069
:103B6000012100E000210C4361004908401AC00F08
:103B700002D10120FDF771FA28463946F8BD000050
:103B80000000F07F70B501250C002D051C4310D4FA
:103B9000EC4206D4AC420AD4994200D070BD9042A7
:103BA00070BDE94217D4EB4215D4994270BD8942E9
:103BB00070BDEC4206D5AC42F9D58B4200D070BD49
:103BC000824270BD6D004C00EC4204D25C00EC42BD
:103BD00001D28B4270BD034C30B4FDF745FA30BCC6
:103BE00070BD00BF1900160470B501251C002D051D
:103BF0000C4310D4EC4206D4AC420AD48B4200D021
:103C000070BD824270BDEB4217D4E94215D48B429D
:103C100070BD9B4270BDEC4206D5AC42F9D59942CD
:103C200000D070BD904270BD6D005C00EC4204D2CB
:103C30004C00EC4201D2994270BD0FB4034C0CBC55
:103C400003BC30B4FDF710FA30BC70BD1900160487
:103C500070B501250400ED074C4020D4441A01D270
:103C6000001B0919C60D4B00F2B2FF2A29D01B0E0A
:103C70002CD000020C02D31A2C43DC402843051937
:103C800010D2280A02D3401C6D0611D0761EF6050C
:103C90008019FF2A00DA70BDC00DC00570BD6940F3
:103CA00000F0A6F801200543C541521C761CE8E748
:103CB00064089C40C90161408900E7D10124A04308
:103CC000E4E71B0E440200D0034870BD002AFCD17B
:103CD000C00FC00770BD00BF0000C07F70B54200BC
:103CE00064414B005C41120E39D01B0E38D0FF2AC4
:103CF0003CD0FF2B3AD040024902400A490A060054
:103D000045184E43000A090AD2184843ED017F3A8C
:103D10000104731A4019190C4318990F04D001219A
:103D20005B0849075B1A521CD80904D3401CF503F1
:103D300001D19D0607D0FF2A08D2D50506D0E40799
:103D40002043401970BD0125A843F4E7002A01DC97
:103D5000E00770BD2402FF202043C00570BD1B0E8C
:103D6000FF2A03D0FF2B01D0E00770BDFF264500DE
:103D70003606B54206D84D00B54203D8D218FF2A00
:103D800000D0E7E7004870BD0000C07F01230A00B3
:103D9000DB0502430DD4DA4203D49A4207D48142B0
:103DA0007047D94214D4D84212D481427047894214
:103DB0007047DA4203D59A42F9D5884270475B00D2
:103DC0004A00DA4204D24200DA4201D28842704705
:103DD0004840414010B5024A4840FDF7CDFA10BDB9
:103DE0000900160470B501250400ED074C4022D4EB
:103DF000441A02D26C40001B0919C60D4B00F2B2E6
:103E0000FF2A4BD01B0E50D000020C02D31A2C43B9
:103E1000DC40A843051B05D5AD0019D36D08761EFF
:103E2000521E37D0F605280A01D2801970BD7041A4
:103E30006D0603D070BD6940FFF710FF9C4009027A
:103E40006140490001D0401E70BD0124A04370BDF7
:103E50006D081DD001202B0C01D12D0410302B0E2C
:103E600001D12D0208302B0F01D12D01001DAB0F08
:103E700001D1AD00801CEB0F01D16D00401C6D0025
:103E8000361A121A680AF5054019012A02DB70BDBC
:103E9000002070BDC036300AC00770BD1B0E440242
:103EA00001D1FF2B00D1024870BD002AF0D070BDB7
:103EB0000000C07F80807F7E7D7C7B7A79787776FA
:103EC00076757473727171706F6E6E6D6C6C6B6AF7
:103ED0006A69686867666665646463636261616095
:103EE000605F5F5E5E5D5D5C5C5B5B5A5A59595812
:103EF000585757565655555554545353525252517C
:103F0000515050504F4F4F4E4E4D4D4D4C4C4C4BD1
:103F10004B4B4A4A4A494949484848474747474618
:103F20004646454545444444444343434342424254
:103F3000424141418182838485868788898B8C8D2B
:103F40008E8F919293959697999A9C9D9FA0A2A3EC
:103F5000A5A7A8AAACAEB0B2B3B5B7B9BCBEC0C233
:103F6000C5C7C9CCCED1D4D7D9DCDFE2E6E9ECF0C5
:103F7000F3F7FAFE000000004C5555555555A53F86
:103F80007751C1166CC156BF9015CB19A001FA3EEE
:103F9000AD529C804F7E92BEC4B1B4BD9EEE213E18
:103FA000D43888BEE9FAA8BD00004054FB21F93F8F
:103FB0003163621A61B4D03D0000601A61B4D03D33
:103FC0007370032E8A19A33B0000002E8A19A33BAD
:103FD000C14920259A837B390000000000000000C1
:103FE0006E83F9A22915444ED15727FCC0DD34F564
:103FF000999562DB4190433CAB6351FE61C5BBDEEA
:104000003A6E24B7E0D24D42EA2E49061C92D109FD
:104010001CEB1DFE3EA729B1F53582E88444BB2E7A
:1040200026709CE9417E5FB439D69139F4395383C7
:104030008B5F849C3B28F9BDFF97F81F0F9805DE26
:104040008B112FEF1F6D0A5ACF7E366DB709CB2724
:10405000663F464F2DEA5F9EC7BA27757BF1E5EBB9
:10406000F739073DEA92528AB15FFB6B085D8D1FFD
:10407000A6F810111111813FD561C119A0012ABF05
:104080007DFEB157E31DC73EEB9C2B8AE6E55ABE89
:104090007CD5CF5A3AD9E53DB84000000000002059
:1040A0001400000004010000CC40000014000020B7
:1040B000641000002001000000000000000000006B
:0C40C0000080000000127A0000127A005C
:04000005000000C136
:00000001FF
