:020000040000FA
:1000000070100020650100006D0100006F0100000C
:1000100000000000000000000000000000000000E0
:10002000000000000000000000000000710100005E
:1000300000000000000000007301000075010000D6
:1000400077010000770100007701000077010000D0
:1000500077010000770100007701000077010000C0
:100060007701000077010000752300007701000090
:100070007701000077010000311A000077010000CD
:100080007701000077010000770100007701000090
:100090007701000077010000770100007701000080
:1000A0007701000077010000770100007701000070
:1000B0007701000077010000770100007701000060
:1000C00000F002F800F03EF80CA030C80838241800
:1000D0002D18A246671EAB4654465D46AC4201D180
:1000E00000F030F87E460F3E0FCCB6460126334274
:1000F00000D0FB1AA246AB46334318472824000021
:1001000048240000103A02D378C878C1FAD85207C0
:1001100001D330C830C101D504680C6070470000BD
:100120000023002400250026103A01D378C1FBD813
:10013000520700D330C100D50B6070471FB51FBDFB
:1001400010B510BD00F0FAFC1146FFF7F7FF02F002
:1001500059F900F012FD03B4FFF7F2FF03BC00F001
:1001600019FD00000748804707480047FEE7FEE703
:10017000FEE7FEE7FEE7FEE704480549054A064BB1
:10018000704700008D210000C100000070000020B9
:100190007010002070080020700800200022030961
:1001A0008B422CD3030A8B4211D300239C464EE092
:1001B00003460B433CD4002243088B4231D303094E
:1001C0008B421CD3030A8B4201D394463FE0C30900
:1001D0008B4201D3CB01C01A524183098B4201D318
:1001E0008B01C01A524143098B4201D34B01C01A03
:1001F000524103098B4201D30B01C01A5241C3087B
:100200008B4201D3CB00C01A524183088B4201D3E9
:100210008B00C01A524143088B4201D34B00C01AD5
:100220005241411A00D201465241104670475DE0EA
:10023000CA0F00D04942031000D34042534000226D
:100240009C4603098B422DD3030A8B4212D3FC2216
:10025000890112BA030A8B420CD3890192118B4295
:1002600008D3890192118B4204D389013AD09211AB
:1002700000E08909C3098B4201D3CB01C01A524166
:1002800083098B4201D38B01C01A524143098B422F
:1002900001D34B01C01A524103098B4201D30B0118
:1002A000C01A5241C3088B4201D3CB00C01A52413D
:1002B00083088B4201D38B00C01A5241D9D2430824
:1002C0008B4201D34B00C01A5241411A00D2014661
:1002D000634652415B10104601D34042002B00D5CB
:1002E0004942704763465B1000D3404201B500208D
:1002F000C046C04602BD704770477047F0B50C4617
:10030000871A9C410D46861A9D4103D2C01BA1410C
:10031000D21963410D0D1F0DC94EEC1BAE435CD0CD
:100320007F057F0D0026002F51D02D05AC46A94337
:10033000DD020123ED0A1B051D4320231B1B24D4D2
:100340001746E740381871412F46E740CC199D40C9
:100350002818314661410C0D27D161449A4013D5CC
:100360000023401C594152000ED140084000012298
:100370004B005205D34207D305204007C14201D5A7
:10038000B04900E0B0493046F0BD6B00002A00D013
:1003900001229A181F23203C1B1B01D5002302E0D9
:1003A000E540281871410C0DD7D001242405091906
:1003B000C407CD0740084908E40F28436144002CD6
:1003C000D5D00024401C61419A40D0D1CDE76A05C8
:1003D000520DD9D1C90FC907D5E79C4D4E00002851
:1003E00001D0012400E0002434195F00002A01D06C
:1003F000012600E00026BE19954FAC420CD8AE4253
:100400000AD8B44206D001256D05EC42BCD0104696
:100410001946F0BD9942FCD000203946F0BDF0B538
:100420001FB40C460F46811A9F412546861A9D41EE
:1004300006D20125ED076F40401ABC4152187B419E
:10044000210D1E0D8D1BAC467D4D8D437ED0750557
:100450006D0D7CD00D05AE46AC431B031B0B794DD7
:1004600052429D41202366469B1B14D31746F740FA
:10047000381800260090744160462F460741E41961
:1004800000989D402818664116D4714671189A400C
:1004900025D5012320E093182A466A415200002BFB
:1004A00000D0521C1E23203E9B1B002B61DD3541DA
:1004B000EE1728186641E8D5001876415B1C9A4073
:1004C00000D3401C4B05F3181524E34010D3002B38
:1004D00052D071467118D30FC01802D3491C05B011
:1004E000F0BD0123DB079A42F9D140084000F6E74E
:1004F00001225205B21801D1002853D00123CC0AA1
:10050000DB029943891E002A08D1020C03D0020C99
:100510000004103902E00246002020390023550B68
:1005200005D112020823550B01D152010D23550CA0
:1005300001D112011B1DD50C01D192009B1C150D80
:1005400001D152005B1C2025EE1A01E02CE022E0D4
:100550000546F54015439840CA1AE1076918130586
:10056000C918002ABBDA032040070818C10FC907C1
:100570000FE071466118B2E7F107400808437110B7
:1005800071444A000CD001235B059A42A7D2C90FDF
:10059000C9070020A3E74905490D26D1002001E045
:1005A0000028F4D100219AE7284D6600002801D0E8
:1005B000012100E0002171185F00002A01D001260E
:1005C00000E00026BE19224FA94210D8AE420ED834
:1005D000B14208D001256D05E94206D01946A802AE
:1005E000414010467BE79C4201D0214677E700203E
:1005F000394674E710B50C465C4005D50124E40784
:100600006340FFF70CFF10BDFFF778FE10BD30B45C
:100610000C465C4004D50124E407634030BC6DE621
:1006200030BCFCE670B50124E40761400D465D4036
:1006300002D4FFF763FE70BD6340FFF7F0FE70BDAC
:10064000FF0700000000F0FF0000F07F0000E0FF67
:100650000000F87FF0B5F94D0C091E092C402E4022
:100660002F468BB0A7437DD0B543FCD0002E7AD067
:10067000002CFCD00D465D40ED0F2543AC1BFF2543
:10068000AD0464190894C502440DC9022143500DFC
:10069000DC0204430120C00701430443D20201915C
:1006A000200C110C00958C46010423468B430A91C3
:1006B00061460904E24D8A430991010A7D444919C2
:1006C0008039097805464D4301266D18F605751BDE
:1006D0006943C90C640B891C4C436418B5012C1B7D
:1006E000250C2E04B4434C434D43210C6918890951
:1006F0000591009DE90701D00121C90704912C460D
:1007000001996708CD072F434C08059DE10B4D4328
:100710002D0C29466646754302950D4645432E46E7
:10072000029D7D1BB44100950D465D4301942C0C48
:100730002F040D465543AE462D0C3D4302950394C0
:100740007546049C2D04641B049406D2029C039DF0
:10075000641C002675410395029401AC70CC009F87
:100760007D1B01E03EE162E1B4410904009507917F
:1007700001940599A4086143090C0C464443650B98
:10078000E7040C4666467443A646640B3C43039557
:1007900002947446049DE4042C1B049406D2029C2B
:1007A000039D641C002675410395029401AC70CC36
:1007B000009F7D1BB44101940C465C430095650F7E
:1007C000E7000C465443A646640F3C43039502944D
:1007D0007446049DE4002C1B049406D2029C039DE5
:1007E000641C002675410395029401AC70CC009FF7
:1007F0007D1BB441AE09AF06049DC900AD092F436E
:10080000049DA406AD060495079D3443691807911D
:10081000059DE10B4D432D0C294666467543029517
:100820000D4645432E46029D7D1BB44100950D4665
:100830005D4301942C0C2F040D465543AE462D0C00
:100840003D43029503947546049C2D04641B049457
:1008500006D2029C039D641C0026754103950294F8
:1008600001AC70CC009F7D1BB44101948C050694B3
:10087000079C890A611800950791019C0599A408B5
:100880006143090C0D464543680BEF040D46644671
:1008900065436C0B3C43049FED047D1BAC4602D2C8
:1008A0000025641C6841009E019D371B8541084658
:1008B000584301950C46460FC5005443600F28432A
:1008C0006546E4002C1B02D20025401C6E41019DB0
:1008D0003F1AB5412846BD09800628438446A00931
:1008E000BF064E020699A40676180743079D00200E
:1008F00068410A99079019430020099B00906046BF
:10090000FF1913434041E20F64003A43A4460446F2
:10091000D71A8C41A04203D90120009020463A46C4
:10092000C70F941840416246D20F224364466400C8
:100930000494009CBE466400D71AA446044602975D
:100940008C417746002F01D1A04204D96046401C5B
:100950008446029A2046C40FA64694184041049A41
:100960000546D20F224364466400D31A8D41714676
:10097000002901D1A84202D928461A46641C104316
:100980000122002800D0164361020020079B89192C
:1009900004465C410223002C02DB491813466441E3
:1009A000089DCE0A2D145D194B056705E10A2C053B
:1009B0000D1908993E43C9076940002B08D09340A0
:1009C00006D30022761C5141002B01D17608760017
:1009D0001C4A002D43DB154241D0AA433FD030468C
:1009E0000BB0F0BD06180D464D41174C7642AC4198
:1009F0001AD395181C465C41134A6D42A24113D389
:100A0000012252054C00D4420AD15C00D4420BD0E2
:100A10004B4002D592021143E2E749004908DFE763
:100A20005940C90FC90718E000200849D8E7054810
:100A300001420DD10342F7D0F2E700000000FF07AA
:100A4000E41D00000000F07F0000E0FF0000F87FE0
:100A5000114859400143C01241400020C0E7012322
:100A6000089A9B069A4205DC032252078918C90F8F
:100A7000C907B5E7052252078918074A1143D21260
:100A80005140ADE770B515461C4602460B46284658
:100A90002146FFF7DFFD70BDFFFFFF7F0346CA025F
:100AA000400D10B510430A1504D00124E40720437B
:100AB000002A05DB0A4CA21A04D4D040FF2A00DD2C
:100AC000002010BD4A00002B01D0012000E00020D2
:100AD000101801225205D042F2D8C817C04310BDE9
:100AE0001E0400001F22030C02D10F22000402D0BA
:100AF000030E03D004E00020014670470002083ACC
:100B0000030F01D10001121F830F01D18000921E3B
:100B1000002801DB4000521E120551184205C01288
:100B2000411810467047C10FC90700D0404201224A
:100B300092071143D6E701218907D3E7754600F0F4
:100B400025F8AE46050069465346C008C0008546F4
:100B500018B020B5FFF710FB60BC00274908B64667
:100B60000026C0C5C0C5C0C5C0C5C0C5C0C5C0C5BC
:100B7000C0C5403D49008D46704710B50446C0468B
:100B8000C0462046FFF7E7FA10BD00000048704756
:100B90001000002001491820ABBEFEE7260002002D
:100BA000704730B5022A0AD28369D5000324AC40CD
:100BB000A343D5000C46AC40234383610BE0C369DB
:100BC000941EE5000324AC40A343941EE5000C46AC
:100BD000AC402343C36130BD4169012211434161EF
:100BE0007047000070B505460C46052600BF6248F8
:100BF000854201D1012000E00020002801D100BF82
:100C0000FEE700BF00BFA06800280BD0A068102836
:100C100008D0A068202805D0A068402802D0A0688D
:100C2000602801D1012000E00020002801D100BF90
:100C3000FEE700BF00BF6069002808D0FF21013136
:100C40006069884203D049006069884201D101206F
:100C500000E00020002801D100BFFEE700BF00BF78
:100C60002069012802D02069002801D1012000E07C
:100C70000020002801D100BFFEE700BF00BF2068B0
:100C8000002805D02068C02802D02068402801D163
:100C9000012000E00020002801D100BFFEE700BFD6
:100CA00020683649C96AC02291430143334AD16260
:100CB00000BF102000F0C4FB0120C00300F0A0FB27
:100CC000A069296B090A09020143296300BFA068D2
:100CD000202804D0402803D0602807D101E000BFBD
:100CE00000BF2846A16800F07BF90BE0A0682968E6
:100CF000102291430143296000BF0021284600F0E3
:100D00006FF900BF00BFE068E96A090C09040143FC
:100D1000E96200BF6069296803221202914301431E
:100D2000296000BF6068A96A090C09040143A9622F
:100D300000BF2069012806D100BF28688021084330
:100D4000286000BF06E000BF286880218843286033
:100D500000BF00BF2846FFF73FFF00E0761E0648B1
:100D600000F00EF8002801D1002EF7D100BF0120BD
:100D70000149086100BF70BD00B001404002004061
:100D800001460869C007C00F01225040504070471B
:100D900010B5026A8C000123A3409A43026210BD81
:100DA00010B5026A8C000423A3409A43026210BD6E
:100DB000F8B506460D46144605270120009000BFF1
:100DC0008648864201D1012000E00020002801D1A0
:100DD00000BFFEE700BF00BF2068002814D02068D5
:100DE000102811D0206820280ED0206830280BD081
:100DF0002068402808D02068502805D02068602846
:100E000002D02068702801D1012000E000200028D5
:100E100001D100BFFEE700BF00BFA069012802D0DA
:100E2000A069002801D1012000E00020002801D1A4
:100E300000BFFEE700BF00BFE068002802D0E06806
:100E4000022801D1012000E00020002801D100BFCC
:100E5000FEE700BF00BF6069012802D0606900287A
:100E600001D1012000E00020002801D100BFFEE7F1
:100E700000BF00BF606A012802D0606A002801D16B
:100E8000012000E00020002801D100BFFEE700BFE4
:100E900000BFA068012802D0A068002801D101206D
:100EA00000E00020002801D100BFFEE700BF00BF26
:100EB0006068012802D06068002801D1012000E0AC
:100EC0000020002801D100BFFEE700BF00BF206A5C
:100ED000002804D0FF210131206A884201D101207D
:100EE00000E00020002801D100BFFEE700BF00BFE6
:100EF000A06A002804D001214902A06A884201D1D9
:100F0000012000E00020002801D100BFFEE700BF63
:100F100000BF2069002802D02069082801D10120E3
:100F200000E00020002801D100BFFEE700BF2946F5
:100F30003046FFF72DFF29463046FFF731FFE068C6
:100F4000316AAB0002229A409143AB0002469A40BC
:100F50001143316200BF206A71686B00FF220132C9
:100F60009A4091436B0002469A401143716000BF62
:100F7000A06A71686B00012252029A4091436B0093
:100F800002469A401143716000BF2069316AAB008C
:100F900008229A409143AB0002469A4011433162C5
:100FA00000BF2A4600213046FFF7FBFD22462946B6
:100FB000304600F013FF3046FFF70EFE00E07F1EC4
:100FC0000648FFF7DDFE002801D1002FF7D100BF52
:100FD00001200249086100BF0098F8BD00B001403F
:100FE000026860239A430A4302607047426B120C06
:100FF00012040A4342637047826B120C12040A43C4
:1010000082637047C26B120C12040A43C2637047BA
:10101000064800690421084304490861084600693C
:1010200001210843014908617047000000E000E029
:1010300010B5044603E07D20C00000F005F820460E
:10104000641E0028F7D110BD10B504460C490D48A8
:101050000068FFF7A3F8444301200006844200D94A
:1010600000E020460446601E074948610020886170
:1010700000BF05480069C003C00F0028F9D010BDAB
:1010800040420F000C00002000E000E0826A8BB2BA
:101090009A438262704702688BB29A43026070473B
:1010A00082688BB29A438260704742688BB29A43DF
:1010B00042607047026A8BB29A4302627047000036
:1010C000F8B506460C460027002500BF6548864255
:1010D0000BD064484030864207D062488030864258
:1010E00003D06048C030864201D1012000E00020DA
:1010F000002801D100BFFEE700BF00BF2068002824
:1011000005D959492068884201D8012000E0002013
:10111000002801D100BFFEE700BF00BF60680328C0
:1011200008D06068002805D06068012802D0606897
:10113000022801D1012000E00020002801D100BFD9
:10114000FEE700BF00BFA068012802D0A068002809
:1011500001D1012000E00020002801D100BFFEE7FE
:1011600000BF00BFE068002802D0E068012801D17C
:10117000012000E00020002801D100BFFEE700BFF1
:1011800080203A49896A0143384A916200BF62E08F
:101190000121B940206808400546002D5AD06068FA
:1011A000032812D129463046FFF775FF29463046FD
:1011B000FFF77BFF29463046FFF772FF00BFB06A9A
:1011C000A9B20843B06200BF2EE029463046FFF7BF
:1011D0005DFF6068002806D100BF3068A9B20843EF
:1011E000306000BF03E029463046FFF754FFA06897
:1011F000002804D129463046FFF752FF06E000BF21
:10120000B068A9B20843B06000BF00BFE068002822
:1012100006D000BF7068A9B20843706000BF03E049
:1012200029463046FFF741FF606802280DD120694A
:10123000012806D100BF306AA9B20843306200BF5E
:1012400003E029463046FFF735FF294630466268FD
:1012500000F00EF87F1C2068F840002898D101208B
:10126000F8BD0000000C0040FFFF0000000200403D
:1012700030B5C3680C464C4365006419A3430C4663
:101280004C4354432343C36030BD0000F0B587B0E6
:1012900005460C4600200690002600BF51488542B6
:1012A00001D1012000E00020002801D100BFFEE7AD
:1012B00000BF00BF206800280DD00121090420686C
:1012C000884208D049002068884204D003210904DC
:1012D0002068884201D1012000E00020002801D1CF
:1012E00000BFFEE700BF00BF6068002805D03E4990
:1012F0006068884201D8012000E00020002801D168
:1013000000BFFEE700BF0120000600F089F80120C1
:1013100000053649C96A0143344AD16200BF2068DA
:101320001146C96A03221204914301432F4AD16234
:1013300000BF2068002807D09113401A08D0401A37
:101340000AD0401A10D10BE000F0BEF806900CE075
:1013500000F088F9069008E000F0CEF9069004E06D
:1013600000F0A2F9069000E000BF00BF60684100F5
:101370000698FEF713FF461E304669691C4A114065
:1013800002041143696100BF00BF6969490A49024B
:101390000143696100BFF005C00DFFF7CCFB0022DF
:1013A00001239B0701910090FFF754F90022114B94
:1013B00003910290FFF71EF905910490FFF76EFB71
:1013C0000746E869400A40023843E86100BF00BFB1
:1013D00004480068012108430249086000BF012059
:1013E00007B0F0BD0024014040420F004002004021
:1013F000FFFF00FE0000E03F10B5FFF709FE10BD43
:101400000249C96A0143014AD16270474002004063
:101410000249C96A0143014AD16270474002004053
:101420000249096B0143014A116370470002004001
:101430000249096B0143014A1163704700020040F1
:101440000249496B0143014A516370470002004061
:1014500010B5002400BF1B48C068072109020840DE
:1014600005221202811A904218D006DC00280DD005
:1014700001218902401A1DD10CE0C81FF93800284B
:1014800010D0FF380138002814D10FE000F034F9F3
:10149000044613E000F030F944080FE000F02CF9A6
:1014A00084080BE000F028F9C40807E000F024F9F4
:1014B000040903E000F020F9044600BF00BF204605
:1014C00010BD00000002004010B5002400BF1B4802
:1014D000C06807210904084005221204811A9042BD
:1014E00018D006DC00280DD001218904401A1DD136
:1014F0000CE001200004081A10D001210904401A50
:1015000014D10FE0FFF7A4FF044613E0FFF7A0FF9C
:1015100044080FE0FFF79CFF84080BE0FFF798FFFB
:10152000C40807E0FFF794FF040903E0FFF790FF0A
:10153000044600BF00BF204610BD0000000200406E
:1015400010B5002400BF1B48C0680721C90408402B
:101550000522D204811A904218D006DC00280DD052
:1015600001214905401A1DD10CE00120C004081AD0
:1015700010D00121C904401A14D10FE0FFF768FF11
:10158000044613E0FFF764FF44080FE0FFF760FF35
:1015900084080BE0FFF75CFFC40807E0FFF758FF83
:1015A000040903E0FFF754FF044600BF00BF2046D4
:1015B00010BD00000002004070B50024002500BFEF
:1015C0002648806902210840002802D0022807D15D
:1015D00003E000F047F8044606E02148046803E011
:1015E00000F040F8044600BF00BF00BF1B48806900
:1015F000702108400107090F00291FD100110300C5
:1016000000F0F2FE080506080A0C12141A1C16E077
:10161000640814E0A40812E0E40810E00C2120465D
:10162000FEF7BCFD04460AE0240908E01821204624
:10163000FEF7B4FD044602E0640900E000BF00BF0D
:1016400000BF064880697F2109040840000C451C42
:10165000204668430446204670BD0000000200405A
:1016600008000020002000BF0B4909690F22120466
:101670001140002906D001221204891A04D0891AC7
:1016800006D103E0054805E0054803E0054801E010
:10169000024800BF00BF70470002004000127A00FD
:1016A0000024F40000366E01002000BF0D49496A95
:1016B000032212041140002908D001221204891AC1
:1016C00006D0891A06D0891A08D105E0064807E035
:1016D000064805E0064803E0064801E0024800BF6E
:1016E00000BF70474002004000093D0040420F002B
:1016F00020A1070090D0030010B5002400BF1648B9
:10170000C0684007400F030000F06EFE0805090C9A
:101710001E10141B171EFFF7A5FF044618E00F4804
:10172000046815E0FFF748FF044611E0FFF7BCFF2F
:1017300004460DE00A4804680AE000F013F8044685
:1017400006E07D24240203E0FFF78CFF044600BF7F
:1017500000BF204610BD000000020040080000202D
:101760000400002000BF0548C06808210840002888
:1017700001D1034870470348FCE700000002004025
:10178000006CDC0200879303F8B505460C46002781
:1017900000200090002600BFA048854208D0A04845
:1017A000854205D09F48854202D09F48854201D19D
:1017B000012000E00020002801D100BFFEE700BFAB
:1017C00000BF2068002814D02068042811D02068A9
:1017D00008280ED020680C280BD02068002808D0DC
:1017E0002068012805D02068022802D0206803283C
:1017F00001D1012000E00020002801D100BFFEE758
:1018000000BF00BFA068002808D0A068402805D00D
:10181000A068802802D0A068C02801D1012000E083
:101820000020002801D100BFFEE700BF00BF2069F3
:10183000002805D02069102802D02069202801D175
:10184000012000E00020002801D100BFFEE700BF1A
:1018500000BFE068002804D0FF210131E068884221
:1018600001D1012000E00020002801D100BFFEE7E7
:1018700000BF00BF6069002808D06069022805D059
:101880006069012802D06069032801D1012000E0CD
:101890000020002801D100BFFEE700BF5F4885425D
:1018A00028D120686149C96A8908890001435F4AD3
:1018B000D16200BF2068002806D0012808D0022885
:1018C0000AD0032810D10BE0FFF7FEFD00900BE0DB
:1018D000FFF7C8FE009007E0FFF70EFF009003E05F
:1018E000FFF7E2FE009000BF00BF61680098FEF7BE
:1018F00055FC461E4A48854228D120684B49C96A92
:101900000C2291430143494AD16200BF206800285C
:1019100006D0042808D008280AD00C2810D10BE0E3
:10192000FFF7D2FD00900BE0FFF79CFE009007E070
:10193000FFF7E2FE009003E0FFF7B6FE009000BF65
:1019400000BF61680098FEF729FC461E33488542B7
:1019500006D18015FFF76CFDA815FFF759FD26E0AD
:101960002F48854206D14015FFF762FD6815FFF745
:101970004FFD1CE02B4885420BD18014FFF758FD2A
:10198000FFF7DEFD009061680098FEF707FC461E39
:101990000DE0254885420AD14014FFF749FDFFF7C5
:1019A000CFFD009061680098FEF7F8FB461E207D91
:1019B000C007C00F002806D000BF286801210843D7
:1019C000286000BF00BF022160690840002805D0E0
:1019D00000BF28680843286000BF00BF00BFA86997
:1019E000000C00043043A86100BFE0682968FF22B2
:1019F000013291430143296000BFA0682968C022D9
:101A000091430143296000BF206929683022914336
:101A10000143296000BF01273846F8BD001C014082
:101A20000020014000A0014000A40140400200400D
:101A300000BF0A48806B02210840400800280CD0F3
:101A400000BF0648C06B08404008002805D000BF12
:101A500001200249C86300BF00BF704700A80140D1
:101A600010B590B0044604200B9002200C9000208A
:101A70000D900E9001200F900BA91248FFF720FB4C
:101A800010200B9002200C9000200D900E900F90D3
:101A90000BA90C48FFF714FB602000900120019077
:101AA00002900020039004900590069007940890FF
:101AB00009900A906A4600210348FFF779F910B0AF
:101AC00010BD0000400C004000B0014010B590B0C7
:101AD000044608200B9002200C9000200D900E90E0
:101AE00001200F900BA91248FFF7EAFA20200B9073
:101AF00002200C9000200D900E900F900BA90C4826
:101B0000FFF7DEFA60200090012001900290002093
:101B100003900490059006900794089009900A900D
:101B20006A4601210348FFF743F910B010BD0000D9
:101B3000400C004000B0014010B590B00446402079
:101B40000B9002200C9000200D900E900F900BA98E
:101B50001248FFF7B5FAFF2001300B9002200C90DD
:101B600000200D900E9001200F900BA90B48FFF75D
:101B7000A7FA6020009001200190029000200390BD
:101B80000490059006900794089009900A906A4680
:101B900002210348FFF70CF910B010BD400C0040C3
:101BA00000B0014000B587B0002000903F200190B8
:101BB00000200290632003900120049000200590F3
:101BC000069069460248FFF70DF807B000BD000017
:101BD00000B0014010B555204449896B090A09023B
:101BE0000143424A916300BF0020114609690F2258
:101BF0001204914301433D4A116100BF00BF1046EA
:101C00000069012108431146086100BF00BF084672
:101C1000806940084000886100BF00208969022275
:101C200091430143314A916100BF302011468969D7
:101C30007022914301432D4A916100BF3F2011461C
:101C400089697F221204914302041143274A91615A
:101C500000BF002011468969082291430143234AAD
:101C6000916100BF00BF1046806901210843114601
:101C7000886100BF00BF00BF1C4880698021084008
:101C8000C0090028F7D0022019490968890889008D
:101C90000143174A116000BF00BF1449C968C90851
:101CA000C9000143114AD16000BF00201146C96834
:101CB00007221202914301430C4AD16000BF00BFCA
:101CC0001146C9680722120491430143074AD160B3
:101CD00000BF00BF1146C9680722D20491430143E7
:101CE000024AD16000BF00F089F910BD0002004037
:101CF0000010004010B5FFF755FF0020FFF7B0FEC1
:101D00000020FFF7E3FE0020FFF716FF00F004F8C5
:101D100000F030F810BD000000B587B00120C0020F
:101D2000029002200390002004900590069002A9E2
:101D30000D48FFF7C5F9012000030290022003902F
:101D4000002004900590069002A90748FFF7B8F913
:101D50000120000400900548019069460448FFF7FF
:101D600095FA07B000BD0000000C0040409C000048
:101D70000024014000B58BB00120400306900220F2
:101D800007900020089009900A9006A91148FFF7D3
:101D900097F9012080030690022007900020089008
:101DA00009900A9006A90B48FFF78AF900200090D5
:101DB000E12040020190402002900020039010207A
:101DC00004900320059069460348FFF7DDFC0BB043
:101DD00000BD0000000C0040001C0140F8B50446A6
:101DE0000D461646012000902846316802280AD286
:101DF000A269C7007023BB409A43C3000F469F40AF
:101E00003A43A2610BE0E269831EDF007023BB400E
:101E10009A43831EDB000F469F403A43E26100BFB6
:101E2000706A012812D12846022806D2A169C3008F
:101E300080229A401143A16106E0E169821ED3002D
:101E400080229A401143E16100BF12E02846022837
:101E500006D2A169C30080229A409143A16106E0A5
:101E6000E169821ED30080229A409143E16100BF64
:101E700000BF7069012812D12846022806D2A16944
:101E8000C30004229A401143A16106E0E169821E69
:101E9000D30004229A401143E16100BF12E02846BA
:101EA000022806D2A169C30004229A409143A1618D
:101EB00006E0E169821ED30004229A409143E16169
:101EC00000BF00BFB069012812D12846022806D2FF
:101ED000A169C30008229A401143A16106E0E169AB
:101EE000821ED30008229A401143E16100BF12E034
:101EF0002846022806D2A169C30008229A409143CD
:101F0000A16106E0E169821ED30008229A40914354
:101F1000E16100BF00BFB068012808D100BF206A9E
:101F2000AA00042191400843206200BF03E0294633
:101F30002046FEF735FF7068012808D100BF206AEF
:101F4000AA00012191400843206200BF03E0294616
:101F50002046FEF71DFF002D06D0012D0CD0022DCE
:101F600012D0032D20D117E0F069616B090C090430
:101F70000143616300BF1AE0F069A16B090C090419
:101F80000143A16300BF12E0F069E16B090C090491
:101F90000143E16300BF0AE0F069216C090C090408
:101FA0000143216400BF02E00020009000BF00BF99
:101FB0000098F8BD00BF09494969490A490201432F
:101FC000064A516100BF00BF00BF04498968022270
:101FD000114049080029F7D070470000001C01405B
:101FE00010B50346002404E0185DFFF7E3FF601C12
:101FF000C4B2185D0028F7D110BD000010B55648D6
:10200000C0684007400F030000F0EEF9084C050AD5
:102010004C0F2F34394C51480068514908605BE03F
:1020200000F046F94E49086056E04B484030406A9F
:102030008003800F002806D0012808D002280AD08B
:10204000032810D10BE04748454908600BE046489B
:102050004349086007E045484149086003E04448B7
:102060003F49086000BF00BF36E0424800683C4975
:10207000086031E07D200002394908602CE03648D4
:10208000C0680007C00F002802D0012808D103E073
:1020900039483349086003E038483149086000BFD7
:1020A00000BF19E02C4800690003000F00280DD084
:1020B000012802D0022808D103E0314828490860ED
:1020C00008E030482649086004E000BF2E48244953
:1020D000086000BF00BF00BF00BF1F48C0684005C8
:1020E000400F030000F080F908050A0F14191F259E
:1020F0002B311B4800681A4908602BE0184800681B
:102100001749086026E0164800681549086021E074
:1021100013480068124908601CE011480068400834
:102120000F49086016E00E48006880080C490860F6
:1021300010E00B480068C008094908600AE0084838
:10214000006800090649086004E005480068044981
:10215000086000BF00BF10BD000200400800002062
:102160000C00002000093D0040420F0020A10700A4
:1021700090D0030004000020006CDC020087930371
:102180000024F40000366E0100127A0010B5002021
:102190004249886105204006C8600846806A80215F
:1021A00008433E4988623E48C0680F2189040843BD
:1021B0003B49C8600020394948620846406A052109
:1021C00009020843354948627D24240100E0641E69
:1021D000002CFCD13148C0680121C90608432F49B1
:1021E000C860AA20886301202E4908600E2048603C
:1021F0000320C90448602C480068000C2A4909885B
:10220000C94389B2884202D12748006800E04020D3
:102210004006400E2149486123484068000C22498D
:102220008988C94389B2884202D11F48406800E0CA
:1022300040204006400E1949403188621A48403813
:10224000006A000C18494039098CC94389B2884298
:1022500003D115484038006A00E08020C0B20F4921
:1022600008620F484068FF21813108430C494860EB
:102270000A48C06A102108430849C8620B48C06B6D
:10228000091508430949C8630448C06A10218843F6
:102290000249C862FFF7B2FE10BD00000002004014
:1022A000C00C004000A8014040FBFF1F000400409C
:1022B00010B500242A4880698007C00F002802D08A
:1022C000012817D113E0264800690003000F0028F9
:1022D00009D0012802D0022804D101E0214C04E0F9
:1022E000214C02E000BF214C00BF00BF02E02048AB
:1022F000046800BF00BF1A4880694006400F030011
:1023000000F072F8080507090B0D13151B1D00BF1F
:1023100015E0640813E0A40811E0E4080FE00C21C4
:102320002046FDF73BFF044609E0240907E0182199
:102330002046FDF733FF044601E0640900BF00BFFB
:10234000074880694002400E401C444304488069AD
:102350000007C00F002800D06400204610BD000018
:10236000000200400024F40000366E0100127A00E2
:102370000800002000BF1A484068FF2101310840D2
:10238000000A00280BD000BF154880680840000AEA
:10239000002804D000BF124800691249087000BF2D
:1023A0000F484068C007C00F01214840484000283E
:1023B00014D000BF0A4880680840484048400028C0
:1023C0000CD000BF01200649886000BF00BF08464E
:1023D000406840084000486000BF00BF70470000F0
:1023E000001C01400000002030B47446641E2578B3
:1023F000641CAB4204D3635D5B00E31830BC184738
:102400001D46F8E7FEF7F8FFFFF7E4FBFFF772FC65
:1024100000BF21480068012108431F49086000BF30
:1024200000BF0846406C0121C90308431A494864AB
:1024300000BF1AA0FFF7D4FD2CE014211648FEF7C8
:10244000D5FD00211448FEF7D7FD00211248FEF704
:10245000D9FD0820FEF7ECFD00210F48FEF7C6FD70
:1024600014210D48FEF7C8FD00210B48FEF7CAFDF8
:102470000820FEF7DDFD00210748FEF7B7FD00212B
:102480000548FEF7B9FD14210348FEF7BBFD0820FF
:10249000FEF7CEFDD1E7000000B0014068656C6C2E
:1024A0006F00000080807F7E7D7C7B7A79787776F4
:1024B00076757473727171706F6E6E6D6C6C6B6A21
:1024C0006A696868676666656464636362616160BF
:1024D000605F5F5E5E5D5D5C5C5B5B5A5A5959583C
:1024E00058575756565555555454535352525251A6
:1024F000515050504F4F4F4E4E4D4D4D4C4C4C4BFC
:102500004B4B4A4A4A494949484848474747474642
:10251000464645454544444444434343434242427E
:10252000424141414425000000000020100000000D
:10253000040100005425000010000020601000007D
:1025400020010000000000000080000000127A005E
:0425500000127A00FB
:04000005000000C136
:00000001FF
