:020000040000FA
:100000009011002071020000790200007B020000C4
:1000100000000000000000000000000000000000E0
:100020000000000000000000000000007D02000051
:1000300000000000000000007F02000081020000BC
:10004000830200008302000083020000830200009C
:10005000830200008302000083020000830200008C
:100060008302000083020000E153000083020000CD
:100070008302000083020000454300008302000069
:10008000830200008302000083020000830200005C
:10009000830200008302000083020000830200004C
:1000A000830200008302000083020000830200003C
:1000B000830200008302000083020000830200002C
:1000C00000F002F800F0C5F80CA030C80838241879
:1000D0002D18A246671EAB4654465D46AC4201D180
:1000E00000F0B7F87E460F3E0FCCB64601263342ED
:1000F00000D0FB1AA246AB46334318474C650000BC
:100100006C650000103A02D378C878C1FAD852075B
:1001100001D330C830C101D504680C6070470000BD
:100120000023002400250026103A01D378C1FBD813
:10013000520700D330C100D50B60704710B56E294F
:1001400002D101F0E1F910BD702902D101F03BFDAF
:1001500010BD662902D106F0EFF810BD652902D165
:1001600006F0EAF810BD672902D106F0E5F810BDE7
:10017000612902D106F0E8F810BD03681B0A01D31B
:1001800080231943692902D101F088F910BD64293F
:1001900002D101F083F910BD752902D101F07EF979
:1001A00010BD6F2902D101F0B9FC10BD782902D130
:1001B00001F0F6FC10BDE92902D101F055FC10BD9B
:1001C000E42902D101F050FC10BDF52902D101F063
:1001D0004BFC10BDEF2902D101F0ACFC10BDF82999
:1001E00002D101F0EBFC10BD0368DB0901D38023D1
:1001F0001943632902D102F006F910BD732902D117
:1002000002F009F910BDE32902D102F013F910BD83
:10021000F32902D102F016F910BD002010BD1FB560
:100220000098019902F053FF01F094FE04000020B1
:10023000002105F0D3FE401C60600020002105F085
:10024000B7FEE06002F032FC1FBD10B502F09AFC70
:1002500010BD02F08FFD1146FFF7E1FF05F0DAFD5A
:1002600002F096FE03B4FFF7F0FF03BC03F0C2F800
:100270000748804707480047FEE7FEE7FEE7FEE73E
:10028000FEE7FEE704480549054A064B70470000B3
:10029000F9510000C10000009001002090110020E1
:1002A00090090020900900201CB50C46064B7B44A9
:1002B00069460090204601F04CFB04460020694648
:1002C00001F05AFB20461CBDC71600000FB40549BB
:1002D00010B503AA029801F055FB10BC08BC04B08D
:1002E0001847000088000020F3B50446002081B0C4
:1002F00020622046E1688847002872D0252802D075
:100300006268A168ABE0594F00267F442046E1684F
:1003100088472028054608DB312D06D27819203879
:100320000078002801D00643F0E7B00701D504208B
:1003300086430020E0610746A0612A2D0AD02846A6
:1003400005F0F0FB002827D0B8000019303D0090E0
:10035000856119E00298BA00121902C891610290F1
:100360002046E1688847012F054617D1E06900283B
:100370001FDA202086431CE000980A218069484348
:1003800000994019303888612046E1688847054661
:1003900005F0C8FB0028EFD1012F0AD02E2D08D17F
:1003A0002046E16888470546202006437F1C022F2F
:1003B000C3DBA069002803DA4042A06101200643A4
:1003C000F00701D0102086436C2D0BD0682D09D08A
:1003D0004C2D3CD06A2D38D0742D38D07A2D36D0A3
:1003E00016E040E0E1682F4620468847B8420546BF
:1003F00009D16C2F29D001208002E16806432046F4
:100400008847054604E06C2F1DD0FF2001300643CD
:10041000002D28D028464138192803D80120C002D1
:1004200006432035204626602946029A1646FFF7E5
:1004300085FE002810D001280BD0F61DF008C00062
:100440000830029055E74020E1E78020D5E7002002
:10045000D3E7361D02964CE762682846A1689047AC
:10046000206A401C44E7206AFEBD00004A6000008C
:1004700001E004C0091F0429FBD28B0701D50280CB
:10048000801CC90700D00270704700290BD0C30739
:1004900002D00270401C491E022904D3830702D5F2
:1004A0000280801C891EE3E70022EEE70022DFE7DE
:1004B000002203098B422CD3030A8B4211D3002361
:1004C0009C464EE003460B433CD4002243088B423B
:1004D00031D303098B421CD3030A8B4201D39446C8
:1004E0003FE0C3098B4201D3CB01C01A52418309BB
:1004F0008B4201D38B01C01A524143098B4201D375
:100500004B01C01A524103098B4201D30B01C01A9F
:100510005241C3088B4201D3CB00C01A5241830819
:100520008B4201D38B00C01A524143088B4201D346
:100530004B00C01A5241411A00D2014652411046A6
:1005400070475DE0CA0F00D04942031000D340421B
:10055000534000229C4603098B422DD3030A8B4251
:1005600012D3FC22890112BA030A8B420CD38901EF
:1005700092118B4208D3890192118B4204D38901D5
:100580003AD0921100E08909C3098B4201D3CB0113
:10059000C01A524183098B4201D38B01C01A5241C8
:1005A00043098B4201D34B01C01A524103098B42CC
:1005B00001D30B01C01A5241C3088B4201D3CB00B7
:1005C000C01A524183088B4201D38B00C01A52419A
:1005D000D9D243088B4201D34B00C01A5241411A71
:1005E00000D20146634652415B10104601D340429F
:1005F000002B00D54942704763465B1000D3404250
:1006000001B50020C046C04602BD70477047704724
:100610000246C80FC00781434B0030B54B405B001A
:100620009B0D20D01923DB06C91801231B05994215
:1006300020DB0324A40704251346AB400BD3002B77
:1006400004D1EB0613409B00E34204D40124640769
:10065000002312195941FF231B0599420BD2C900EF
:100660000143500F09E0CB0204D5014308030243C4
:1006700005D0054830BDFF21C905084330BD0846F7
:1006800007210905884330BD0000C07FF0B50C4646
:10069000871A9C410D46861A9D4103D2C01BA14179
:1006A000D21963410D0D1F0DC94EEC1BAE435CD03A
:1006B0007F057F0D0026002F51D02D05AC46A943A4
:1006C000DD020123ED0A1B051D4320231B1B24D43F
:1006D0001746E740381871412F46E740CC199D4036
:1006E0002818314661410C0D27D161449A4013D539
:1006F0000023401C594152000ED140084000012205
:100700004B005205D34207D305204007C14201D513
:10071000B04900E0B0493046F0BD6B00002A00D07F
:1007200001229A181F23203C1B1B01D5002302E045
:10073000E540281871410C0DD7D001242405091972
:10074000C407CD0740084908E40F28436144002C42
:10075000D5D00024401C61419A40D0D1CDE76A0534
:10076000520DD9D1C90FC907D5E79C4D4E000028BD
:1007700001D0012400E0002434195F00002A01D0D8
:10078000012600E00026BE19954FAC420CD8AE42BF
:100790000AD8B44206D001256D05EC42BCD0104603
:1007A0001946F0BD9942FCD000203946F0BDF0B5A5
:1007B0001FB40C460F46811A9F412546861A9D415B
:1007C00006D20125ED076F40401ABC4152187B410B
:1007D000210D1E0D8D1BAC467D4D8D437ED07505C4
:1007E0006D0D7CD00D05AE46AC431B031B0B794D44
:1007F00052429D41202366469B1B14D31746F74067
:10080000381800260090744160462F460741E419CD
:1008100000989D402818664116D4714671189A4078
:1008200025D5012320E093182A466A415200002B67
:1008300000D0521C1E23203E9B1B002B61DD354146
:10084000EE1728186641E8D5001876415B1C9A40DF
:1008500000D3401C4B05F3181524E34010D3002BA4
:1008600052D071467118D30FC01802D3491C05B07D
:10087000F0BD0123DB079A42F9D140084000F6E7BA
:1008800001225205B21801D1002853D00123CC0A0D
:10089000DB029943891E002A08D1020C03D0020C06
:1008A0000004103902E00246002020390023550BD5
:1008B00005D112020823550B01D152010D23550C0D
:1008C00001D112011B1DD50C01D192009B1C150DED
:1008D00001D152005B1C2025EE1A01E02CE022E041
:1008E0000546F54015439840CA1AE10769181305F3
:1008F000C918002ABBDA032040070818C10FC9072E
:100900000FE071466118B2E7F10740080843711023
:1009100071444A000CD001235B059A42A7D2C90F4B
:10092000C9070020A3E74905490D26D1002001E0B1
:100930000028F4D100219AE7284D6600002801D054
:10094000012100E0002171185F00002A01D001267A
:1009500000E00026BE19224FA94210D8AE420ED8A0
:10096000B14208D001256D05E94206D01946A8021A
:10097000414010467BE79C4201D0214677E70020AA
:10098000394674E710B50C465C4005D50124E407F0
:100990006340FFF70CFF10BDFFF778FE10BD30B4C9
:1009A0000C465C4004D50124E407634030BC6DE68E
:1009B00030BCFCE670B50124E40761400D465D40A3
:1009C00002D4FFF763FE70BD6340FFF7F0FE70BD19
:1009D000FF0700000000F0FF0000F07F0000E0FFD4
:1009E0000000F87FF0B5F94D0C091E092C402E408F
:1009F0002F468BB0A7437DD0B543FCD0002E7AD0D4
:100A0000002CFCD00D465D40ED0F2543AC1BFF25AF
:100A1000AD0464190894C502440DC9022143500D68
:100A2000DC0204430120C00701430443D2020191C8
:100A3000200C110C00958C46010423468B430A912F
:100A400061460904E24D8A430991010A7D4449192E
:100A50008039097805464D4301266D18F605751B4A
:100A60006943C90C640B891C4C436418B5012C1BE9
:100A7000250C2E04B4434C434D43210C69188909BD
:100A80000591009DE90701D00121C90704912C4679
:100A900001996708CD072F434C08059DE10B4D4395
:100AA0002D0C29466646754302950D4645432E4654
:100AB000029D7D1BB44100950D465D4301942C0CB5
:100AC0002F040D465543AE462D0C3D43029503942D
:100AD0007546049C2D04641B049406D2029C039D5D
:100AE000641C002675410395029401AC70CC009FF4
:100AF0007D1B01E03EE162E1B441090400950791EC
:100B000001940599A4086143090C0C464443650B04
:100B1000E7040C4666467443A646640B3C430395C3
:100B200002947446049DE4042C1B049406D2029C97
:100B3000039D641C002675410395029401AC70CCA2
:100B4000009F7D1BB44101940C465C430095650FEA
:100B5000E7000C465443A646640F3C4303950294B9
:100B60007446049DE4002C1B049406D2029C039D51
:100B7000641C002675410395029401AC70CC009F63
:100B80007D1BB441AE09AF06049DC900AD092F43DA
:100B9000049DA406AD060495079D3443691807918A
:100BA000059DE10B4D432D0C294666467543029584
:100BB0000D4645432E46029D7D1BB44100950D46D2
:100BC0005D4301942C0C2F040D465543AE462D0C6D
:100BD0003D43029503947546049C2D04641B0494C4
:100BE00006D2029C039D641C002675410395029465
:100BF00001AC70CC009F7D1BB44101948C05069420
:100C0000079C890A611800950791019C0599A40821
:100C10006143090C0D464543680BEF040D466446DD
:100C200065436C0B3C43049FED047D1BAC4602D234
:100C30000025641C6841009E019D371B85410846C4
:100C4000584301950C46460FC5005443600F284396
:100C50006546E4002C1B02D20025401C6E41019D1C
:100C60003F1AB5412846BD09800628438446A0099D
:100C7000BF064E020699A40676180743079D00207A
:100C800068410A99079019430020099B009060462B
:100C9000FF1913434041E20F64003A43A44604465F
:100CA000D71A8C41A04203D90120009020463A4631
:100CB000C70F941840416246D20F22436446640035
:100CC0000494009CBE466400D71AA44604460297CA
:100CD0008C417746002F01D1A04204D96046401CC8
:100CE0008446029A2046C40FA64694184041049AAE
:100CF0000546D20F224364466400D31A8D417146E3
:100D0000002901D1A84202D928461A46641C104382
:100D10000122002800D0164361020020079B891998
:100D200004465C410223002C02DB4918134664414F
:100D3000089DCE0A2D145D194B056705E10A2C05A7
:100D40000D1908993E43C9076940002B08D093400C
:100D500006D30022761C5141002B01D17608760083
:100D60001C4A002D43DB154241D0AA433FD03046F8
:100D70000BB0F0BD06180D464D41174C7642AC4104
:100D80001AD395181C465C41134A6D42A24113D3F5
:100D9000012252054C00D4420AD15C00D4420BD04F
:100DA0004B4002D592021143E2E749004908DFE7D0
:100DB0005940C90FC90718E000200849D8E705487D
:100DC00001420DD10342F7D0F2E700000000FF0717
:100DD000195900000000F07F0000E0FF0000F87FDC
:100DE000114859400143C01241400020C0E701238F
:100DF000089A9B069A4205DC032252078918C90FFC
:100E0000C907B5E7052252078918074A1143D212CC
:100E10005140ADE770B515461C4602460B462846C4
:100E20002146FFF7DFFD70BDFFFFFF7F30B50346B2
:100E3000CA02400D1043164D164C0A1502D020432D
:100E4000002A06DBAA1A002A12DDD040FF2A0BDC9A
:100E500030BD5205520D01D140004008AA1A07D4F6
:100E6000D0404042FF2A01DD002030BD0028FCDDDB
:100E70004A00002B01D0012000E0002010180122C0
:100E80005205D042F0D8C817C043604030BD0000C2
:100E90001E040000000000800346CA02400D10B589
:100EA00010430A1504D00124E4072043002A05DB7F
:100EB0000A4CA21A04D4D040FF2A00DD002010BD45
:100EC0004A00002B01D0012000E000201018012270
:100ED0005205D042F2D8C817C04310BD1E0400000E
:100EE0001F22030C02D10F22000402D0030E03D0F4
:100EF00004E00020014670470002083A030F01D1C8
:100F00000001121F830F01D18000921E002801DB17
:100F10004000521E120551184205C01241181046D9
:100F20007047C10FC90700D0404201229207114308
:100F3000D6E701218907D3E7F0B58B4C0F09254689
:100F400089B0BD437BD01D092646AE43FAD00E467C
:100F50005E402740F60F3E43254071D024012142D8
:100F6000FBD0FF24AD19A4042D1B039501252D05ED
:100F7000DB02DB0AC9022B43C90A29431E0109010E
:100F8000040F130F050121431701880B82039143BE
:100F90002D098C46A90B1E438A039543B30B9A0374
:100FA00096433F09BA0B9403A74302962E467E430D
:100FB0000497B6464E19D7190C4601965443059727
:100FC0007E43371B7646BF1B3601B646BE0B36192D
:100FD00000967646BC043719009C01D3641C00942B
:100FE0006400002F01D001263443029E049F754304
:100FF00066467E430496760034196E0034190094D8
:10100000029C019E1C196643751BAE4606946546FC
:101010004519059C05956C43594375460891691A15
:101020000191049E01465143A41B0491611A009C46
:101030000791E10605D061090122114302E072E047
:101040006EE06109089D00272C0A2D066918049D91
:101050007C412A0A2D066918019D6241AC0DAD0242
:101060006D185441079A910D920255196141029AE7
:10107000644658435443069B059A5A43121A131B5D
:101080009A0E9B015B187A41010B0005C318514170
:10109000220A200644195A419A4200D2491C0120D2
:1010A0004002814203D315230226F64302E01423B3
:1010B0000326F6432020C51AA9401746AF40DA4060
:1010C0000A4320460399D84009147318190551188A
:1010D000039A3843D2075140AC4009D001229440D2
:1010E00006D30022401C5141002C01D14008400091
:1010F0001E4A934212D3012203989206904207DBC4
:101100000520400709181A480143C012414004E075
:10111000032040070818C10FC907002009B0F0BD1F
:101120000020F107FAE705180C464C4111486D42C2
:10113000A04115D394181A465A410E486442904172
:101140000ED301204A004005824209D35A00824250
:1011500006D35940C90F084AC90700201143DDE7EB
:1011600000200649DAE700000000FF07FE07000044
:10117000FFFFFF7F0000E0FF0000F07F0000F87F2E
:101180000121C9050123411842001B06D3185B0E3B
:101190000AD0C1100722D206891840075242D14214
:1011A00001D5520089187047090208D50146002A66
:1011B00003D0C10FC9070020704710467047420294
:1011C00002D0002002497047072109050143F4E7D6
:1011D0000000F87FF0B5FF252D04C609C209FF27DE
:1011E00004462E400137CB093E4348402A402B405D
:1011F0000746002A6BD0002B69D0AA4267D0AB42C9
:1012000065D0002800DA32460125ED0529432C433C
:1012100009022002090AD21A4B0C7F24E31A434C1C
:10122000000A7C44E35C7D242404121914145B003E
:10123000A218884201D3521C00E0400049420C46EB
:101240005C4324115C43DB016415E318040A5C432E
:10125000C502200D0C4644436419250A5D4323034F
:10126000EC0C0D46654300030019EB184C42A342F9
:1012700001D35B18401CD4052018002B07D05B005D
:10128000C91804D3401C002901D1400840003F2167
:1012900089048A4209D3002A08DC1106090F04D008
:1012A000032149074018C00FC007F0BD01224100CB
:1012B000120689187F2252069142F6D2052149076B
:1012C000C84201D59010F0BDFF20C005F0BD002F31
:1012D00000DA32461648AA4207D2AB4205D21902BA
:1012E000090E17D0F80FC007F0BDFF2563002D06CB
:1012F000AB42F9D84900A942F6D8AB4201D1A94284
:10130000F2D0A94201D1002101E061004908D005D5
:101310000843F0BD1102090EFBD0FF200243D005A7
:10132000F0BD0A460146104654E70000C3510000D4
:101330000000C07F0102C21504D00123DB0719435E
:10134000002A0ADB9E239A1A02D40846D04070472E
:10135000FF2241001206914201D900207047C017B8
:10136000C04370471F22030C02D10F2200041CD07F
:10137000030E01D10002083A030F01D10001121F30
:10138000830F01D18000921E002801DB4000521E15
:10139000D2055118021251181922904004D3491C49
:1013A000002801D14908490008467047C10FC90704
:1013B00000D04042012292071143D3E7012189075F
:1013C000D0E710B500F0CAFD006810BD10B50446A6
:1013D00000F0C4FD046010BD70B504468569006866
:1013E000C10601D5302600E02026C00707D070BD19
:1013F00062683046A1689047206A401C20626D1EDA
:10140000F6D570BD70B5044685690078C00707D170
:1014100070BD6268A16820209047206A401C20624D
:101420006D1EF6D570BD09684A0501D540B27047FA
:10143000C905FCD500B2704709684A0501D5C0B29C
:101440007047C905FCD580B2704770B50C4605469B
:10145000012A05D02878800600D5EA69002302E039
:10146000012305E05B1C934202D2E05C0028F9D125
:10147000A869E618C01AA861286AC0182862284618
:10148000FFF7AAFF04E06A682078A968641C904707
:10149000B442F8D32846FFF7B5FF70BDF7B5002575
:1014A00075291068009914A611D0FFF7BCFF002819
:1014B00002DA404211A608E0009909688A0701D5BE
:1014C0000FA602E0490704D50EA6012501E0FFF7AB
:1014D000B3FF009F0024243704E001F0A5FB303166
:1014E0003955641C0028F8D12B4632462146009815
:1014F00000F075FDFEBD0000000000002D000000A2
:101500002B0000002000000011680268006A5305EB
:1015100001D5087009E0D30501D5088005E0130660
:1015200002D5C21705C100E0086001207047000025
:101530007047FFB50C461E468FB003CA089009914C
:101540004F007D0D00D16D1E002108460020C046D1
:101550000321099A89050840002A03DA82008018CD
:1015600040080840800D01280A9002DD0020C04399
:101570000A90089807430DD0F048F14928184843CD
:101580000714189800281DD07542291E1DDD0A98E1
:1015900042421BE01898012802D00020302104E0CC
:1015A0000020F24305E02154401CB042FBDB3046F2
:1015B0000022189B002121540F998B600A6048601B
:1015C00013B0F0BDBD1B6D1CDFE70A9A002900DADD
:1015D00069420BA800F03AFF0BAB07CB03AB07C384
:1015E0000899099800F09EFF6B4607C30146D5484D
:1015F0000918002D00910BDDD24903980A9A49423F
:101600004018002303A90390684601F0FBF908E0A5
:1016100003990A9A0023081803A90390684601F069
:101620009BF96B4607C30004000C03D00020C043A5
:10163000410800E01046189A002A03D000220092C8
:1016400015461EE0751E05D400F08CFC3032625544
:101650006D1EF9D501220843079602D000227F1C97
:1016600004E02078302801D100227F1E002A06974E
:1016700087D01EE0112D07DA00F074FC303262557D
:101680006D1C02460A43F5D1084303D00098002898
:1016900019D00EE00021681E05E0235C625C6354F3
:1016A0002254401E491C8142F7DBA81B401E0795AF
:1016B0000690079A18990020A0540F98079B069A45
:1016C00081600CC07CE711260020189059E7D21DDC
:1016D000F0B50D460446D10893B0C90003C90C907B
:1016E0000D9103F0DDFE02460D98C00F01D02D20B4
:1016F00007E02068810701D52B2002E04007C00FDA
:101700004001032A0F9001D0072A05DB0346294632
:10171000204600F029FE0EE12078800601D5E76919
:1017200000E006272846652D04D0662814D0672DD2
:1017300069D12DE00020112F009001DB112300E082
:101740007B1C0CAA03A910A8FFF7F3FE1199002631
:1017500010987D1C0E9142E001203B460CAAC00768
:101760000B900120009003A910A8FFF7E2FE119D45
:1017700012981099002600280E9501D1781C0D189A
:10178000781B02D446427D1C761EE81B00903AE08E
:10179000012F00DA01270020112F009001DD112315
:1017A00000E03B460CAA03A910A8FFF7C2FE11995E
:1017B0003D46109800260E91217809070BD40E990A
:1017C000A94200DA0D4603A9012D04DD4A19203A89
:1017D000D27F302A06D0B84201DA011D04DA012195
:1017E00000910FE06D1EEFE7002802DC86192D1A2C
:1017F00003E0411CA94200DD0D46801B401C009007
:101800000120C0070B902078000705D40098A8425B
:1018100002DB0020C043009069460020C8720B988C
:10182000012102AF0337C907884225D0022010905A
:101830002B2011900B9800280BDA40420B902D20A2
:10184000119006E00B9801F0EFF930317F1E0B90FC
:1018500039701099481E00291090F3DC0B9800286D
:10186000F0D111987F1E38702088000501D54520E1
:1018700000E065207F1E387001A8C01BC01D0B90C2
:101880000F98002800D0012041190098C0170918AE
:101890000B980818A169081A401EA0612078C0069C
:1018A00002D42046FFF798FD0F98002805D0626803
:1018B000A1689047206A401C20622078C00625D588
:1018C0002046FFF789FD21E0002E07DB0E98B0428D
:1018D00004DD03A86268805DA16802E06268A16817
:1018E00030209047206A761C401C20620098401EE1
:1018F000002800900AD100F02DFBC06862680168E2
:10190000405CA1689047206A401C206228466D1EFA
:101910000028D9DC07E062683878A1687F1C90470E
:10192000206A401C20620B99481E00290B90F2DCB3
:101930002046FFF767FD032042E6000001FCFFFFA1
:10194000104D0000E1DFFFFF01694A1C02610878C9
:10195000704700B58FB002910021059105490193B0
:1019600079440391114604906846FEF7BDFC0FB020
:1019700000BD0000E5FFFFFF0A681070521C0A60FE
:1019800070470000084B70B50D467B44FFF7E1FF40
:101990000446284601F086F8002802D00020C04303
:1019A00070BD204670BD000077440000F7B50446C6
:1019B000154686B02B487844002703C83E46009061
:1019C000019111E007986A467100415A02A801F09E
:1019D0000BF9411C07D02178890603D5E269391833
:1019E00091420ED83F18761C2078800602D5E06917
:1019F000B84206DDAE42E5DB07987100405A002888
:101A0000E0D1A069C01BA0612046FFF7E5FC1548A6
:101A100078445A3803C800900020019116E0410034
:101A20006A460798415A02A801F0DEF80590401C6A
:101A30000AD0002505E0626802A8A168405D9047D1
:101A40006D1C05988542F6D30498401CB042049062
:101A5000E5DB206AC01920622046FFF7D3FC09B0FD
:101A6000F0BD0000724A0000F7B5D21D0025D20873
:101A700015A6D200F52905CA11D0002A05DA0021E1
:101A80004042914111A60A4608E0009909688B0777
:101A900001D50FA602E0490701D50EA60125114682
:101AA000009F0024243704E000F05CFA30323A55FD
:101AB000641C02460A43F7D12B4632462146009861
:101AC00000F08DFAFEBD0000000000002D000000B7
:101AD0002B0000002000000070B5044600212434D3
:101AE00008E05507D2086D0F303565545D072A436D
:101AF000DB08491C15461D43F3D10468002310A2DE
:101B0000250708D5A40601D4002904D0C4690123FF
:101B10000CA2641EC46100F062FA70BD10B50446E8
:101B200021461068FFF788FC002302462046FFF795
:101B3000D3FF10BDD21DD108C9000CC9CCE70000ED
:101B40000000000030000000F8B50F4601880905CC
:101B500002D5224C7C4402E0204C7C440E340546E5
:101B60000021243508E016071209360FA65D6E54D1
:101B70001E0732431B09491C16461E43F3D1224659
:101B800004780023240705D5702F06D0002901D042
:101B90000223113200F023FAF8BD01231032F9E7D5
:101BA00070B504460D4621461068FFF745FC00233A
:101BB000024629462046FFF7C7FF70BDD21DD30855
:101BC000DB000CCBC0E730B4036820241268234349
:101BD00003600823C36130BC0023B5E7DC48000084
:101BE000F8B5224C4E00069DA6420AD8A64201D165
:101BF000002806D15E00A64203D8A6420AD1002AD8
:101C000008D00D24240425422CD02946002001F0C0
:101C10001FF8F8BD0C461C430CD4994202D0EFF3D8
:101C20000080F8BD904202D0EFF30080F8BDEFF3E2
:101C30000080F8BD09242407E5008B4206D0EFF3AD
:101C40000080A043591A06D2284304E0101A05D395
:101C5000EFF30080A04380F30088F8BDEFF300802D
:101C6000A043F1E7009501F00BF8F8BD0000E0FF9C
:101C7000F0B55B4E0C093546A54377D01D093746B4
:101C8000AF4373D0354034402F46002901DA052692
:101C90003543002F6BD0534E314269D0DE02012311
:101CA000C9021B05C90AF60A19431E431B11AC469B
:101CB000EB1A9C4246DD01273F04E51B801AAC4627
:101CC000B14105D50D4600214042A94101256B4097
:101CD000CD022D0F05D0CD02EBD400184941E41BF5
:101CE000F9E749004908050B0D4303D10525000517
:101CF000AD04641B002904D1010B05250005AD04CA
:101D0000641B00254F0901D1090410254F0B01D197
:101D1000090208354F0C01D109012D1DCF0C01D14D
:101D20008900AD1C0F0D01D149006D1C2F04E41B6F
:101D30000746AF40BE4620277D1BE8400143AC4626
:101D40007046B6E74D00054329D025141F14BD4247
:101D500016DB05460F46554077403D4309D00D46FA
:101D6000871AB5410CD392187641A4E719E034E004
:101D70002FE06246120C250C954201D101225340FE
:101D800001252D04621B12018918DA075140AC426B
:101D900022DA032040070818C10FC9071BE05807C3
:101DA000FAE706180D464D410F4C7642AC4114D36C
:101DB00094185B410C4A64429A410ED30A0DD243F7
:101DC00052050AD001235B05DA4205D34A000243DB
:101DD00002D0C90FC9070020F0BD00200349F0BDA3
:101DE0000000FF070000F07F0000E0FF0000F87F28
:101DF000F0B53D4B02460C461C400020002C63D041
:101E00003A4D8B4366D000296BDB0B0D1D05A943B2
:101E100001252D0529430124FD33E34001D3921808
:101E20004941FF3381339C468B02940D01212343AA
:101E300089074C42920200271B198C105D1A04D4AA
:101E40002D1B02D42B466500491992185B4164088A
:101E5000F4D15C1A08D40125ED07EE175519744129
:101E600002D42A462346491C94185B41012292075A
:101E70001D46E61B8D4106D4B61A854103D42B4678
:101E8000550034467F1924195B415208802AEFD14E
:101E9000234300D0022338460A22D04001D3012236
:101EA00013438A0510436246890A12058918002BDC
:101EB00009D00122D34002D30022401C5141002B03
:101EC00001D140084000F0BD0B03134307D0C90FF8
:101ED000C907F0BD0803104303D1002901DB1046F8
:101EE000F0BD00202946F0BD0000F07F0000F87F23
:101EF00010B5FF231B0644009C421DD84C009C4299
:101F00001AD80346124A0B4307D4401A02D3EFF300
:101F1000008010BDEFF3008010BD081A06D2EFF369
:101F2000008001219043C907084302E0EFF30080DD
:101F3000904380F3008810BD0D231B041A4204D087
:101F40001146002000F084FE10BD00F0D3FE10BD4D
:101F50000000009000487047500100200048704782
:101F6000300100200B4670B50246890780080843FF
:101F700019469D08141AA9412509080705430809AF
:101F80002C194841250A01060D43010A2C1941412B
:101F9000200C0D0428430D0C00194D41002140195F
:101FA0004D41C00869070843E908840F8D002543A7
:101FB000840024184D4124196D41121BAB4107E0E8
:101FC0000925ED432C11521963410024401C614145
:101FD0001C460A250026551BB441F1D270BDFFB541
:101FE00004460D4681B0243000902168880604D54F
:101FF0001022E0699143216000E00120A84201DD48
:10200000471B00E000270498A1697A191018081AE4
:10201000A0612078C00602D42046FFF7DDF9002633
:1020200008E003986268A168805D9047206A401CC0
:10203000761C206204988642F3DB2078C0060AD51D
:102040002046FFF7C9F906E06268A1683020904792
:10205000206A401C206238467F1E0028F4DC07E01E
:1020600000986268A168405D9047206A401C206229
:1020700028466D1E0028F3DC2046FFF7C3F92078C0
:10208000000602D5022005B0F0BD0120FBE70000EC
:10209000D21DF0B504460D46D0088DB0C00046688C
:1020A00007683146384603F0FBF90246F00F01D0CD
:1020B0002D2307E02068810701D52B2302E040078C
:1020C000C00F43016846002B037001D0012000E0DF
:1020D0000020032A0A9001D0072A04DB2946204663
:1020E00000F042F92DE12078800601D40D2500E0B2
:1020F000E5697000400D0D2D01904BDA300D002187
:102100000B9008460020C046032189050840002E98
:1021100005DA82008018C20F1018401008408015A0
:10212000012801DD0020C043A9000023182906D39F
:102130009C460A460123183A1B07D34003E00122BC
:102140001205CA4094460C31202902D33A46203960
:1021500000E032468A40002802DD002A06D119E05C
:10216000002817D10121C9078A4213D319466346B3
:102170007F185E41002806D10120C007824202D1AB
:10218000084687439E430B98310D814202D0019847
:10219000401C01902088000502D57149794402E075
:1021A0006F49794419396B460A9830221A540A98B3
:1021B0000A7C401C1A54401C0A900198002801DC3B
:1021C000302000E031201872019A0120002A02D04C
:1021D000644BD21804E072003A4302D0614A521CA8
:1021E0000192002D02DC2278120703D56A462E20C8
:1021F000507202200022864694460CE032033601DB
:10220000120F6D1E8B5C02AA13546246521C401CB6
:102210009446052A01DA002DF0DC002202AE08E027
:102220003B0F3F01CB5C521C6D1E3354401C082AEF
:1022300001DA002DF4DC23689A0601D511E0401E76
:10224000704504DD3218203AD27F302AF7D00028BA
:1022500007DD3218203AD27F2E2A02D11A0700D485
:10226000401E002D03DD3E223254401C6D1E497C71
:1022700031540199401C002906DA2D21471C3154A4
:1022800001984042019003E02B21471C31540198F2
:102290007D21C900884206DBFEF714F93030F05585
:1022A0007F1C019101E0642808DB01986421FEF79E
:1022B00009F93030F0557F1C019101E00A2806DB56
:1022C00001980A21FEF7FEF83030F0557F1C019886
:1022D0000A21FEF7F7F83031F1550A98A1697F1C01
:1022E0007A191018081AA0612078C00602D4204676
:1022F000FFF772F8216A6E460A980818206204E017
:1023000062683078A168761C90470A98401E0A904F
:10231000401CF5D12078C00602D52046FFF75CF8B6
:1023200002AE09E03078761C3E280DD06268A168C4
:102330009047206A401C20627F1EF3D22046FFF7A0
:1023400061F80DB00320F0BD206A4019206203E05F
:102350006268A168302090476D1EEDD3F8E7000059
:10236000F343000001FCFFFFF8B51F4604460123BC
:102370000068DB02032601461840072A05DB002817
:1023800001D017A506E017A504E0002801D016A586
:1023900000E016A5102081432160A069C01E002F17
:1023A000A06101D0401EA0612046FFF715F8002F64
:1023B00009D038466268A1689047206A401C2062B4
:1023C000C01C206206E0206AFAE762682878A168EB
:1023D0006D1C9047761EF8D22046FFF713F8F8BD23
:1023E0004E414E006E616E00494E4600696E6600B9
:1023F00010B54369002B02D0C046C04601E0FFF78C
:1024000024F8012010BD1278014624310A70002200
:102410004A700122ECE711680022D243E8E710B5C8
:102420004369002B02D0C046C04601E0FFF7BEFA68
:10243000012010BD12880146243182840022C2840A
:102440000122ECE711680022D243E8E7F7B516460F
:102450008AB0334878446C4603467C33C06F5A6870
:102460009B680DC42E487844763003AC0DC80DC46B
:102470003720C001081837211B30FEF723F8054626
:102480000C46803D1B3C02D56442012000E0002048
:102490000027099010E0E0070CD00C202049784379
:1024A000794432464C3941186846012300F054FA09
:1024B0006B4607C364107F1C002CECD1184F7F447F
:1024C0002E3F16E0E80712D02001C0190EC8069171
:1024D000089307920068F04201D19819089032469B
:1024E000012306A903A800F037FA03AB07C36D1058
:1024F000641C002DE6D10998002806D032466946B2
:10250000012303A800F07EFA05E001233246694664
:1025100003A800F021FA0A9B07C30DB0F0BD00002C
:1025200050410000034640000A4610B5400D0BD054
:102530000121C9070F24A40200191C0364082143C8
:10254000540D2143D20207E000210120F2E7D40F0D
:10255000490021435200401E0029F8DADB0FDB0757
:10256000184310BDFFB50D46144685B04868516844
:1025700002F070FF00910190A868A16802F06AFF64
:1025800002910390A868616802F064FF029A121831
:102590008242029201D2012000E00020019A0B1831
:1025A000D2180028019202D08A4202D903E08A425E
:1025B00001D2012000E0002000990818009068680E
:1025C000A16802F047FF029A12188242029201D2D9
:1025D000012000E00020019A0B18D2180028019277
:1025E00002D08A4202D903E08A4201D2012000E0EF
:1025F00000200099081800902868216840004900D0
:10260000400849084018FA49471814E00199400069
:10261000C90F08430090019802994000C90F084370
:102620000190029803994000C90F08430290039853
:1026300040007F1E039000980028E7DA08980028E1
:1026400001D0EC4E00E00026B74201DA012000E0A4
:102650000020002804902AD0F71BF806C00E15D0E1
:10266000029B2021091A039A8B401A430392029A73
:10267000019BC2408B401A430292019A009BC240C8
:102680008B4000991A430192C14000917B110DD0FB
:102690006F460320C11A03D500218200B95003E020
:1026A0008A008100BA587A50401EF3D53746039805
:1026B0000299002800D001200143089802910028C7
:1026C00008460CD0002800D001200199019A490544
:1026D00008430121D20AC902D202019200E001217D
:1026E0000E9B0122D207012B02D0002B03D013E056
:1026F000002807D120E0904204D890420CD1019BE1
:102700000B4209D0019B5918019105D10099491C30
:10271000009101D17F1C009200280DD010210846A5
:102720000020C0460498002806D00F98002803D047
:10273000082108460020C04628682168019B009AAD
:102740004840C10F0598C90739430EC009B0F0BD14
:10275000FFB587B0099A089808995368926840684D
:10276000896896460022039317469446089A126891
:102770005300099A5B081268520052089A1A9E4B3D
:10278000D4180A9A002A01D0352200E0402206928D
:102790000022012315460492DB07059324E0002D57
:1027A00005D175460346039E4D1BB34109D37546BB
:1027B0006646039B491B049D9841059B7519AC46D1
:1027C0005F4163463B4308D0059B049EDD077608C6
:1027D0002E435B080496059301E0521E641EC50F4C
:1027E000ED0749184041521C069B9A42D7DB002D49
:1027F00004D17546039A6B1A824101D203200CE082
:10280000039A0B466B404240134303D0014303D06D
:10281000012002E0022000E0002061460191002139
:10282000009702910A99002905D0614640020143B0
:10283000704B019102E08007002302909C4201DA74
:10284000012000E0002007003AD01A1BD006C00E7D
:1028500015D0029D2021019C091AC5408C402543BA
:10286000029C8C4000D001242543019C0295009DD0
:10287000C4408D4000992C430194C14000915411F3
:102880001DD06D460221002202290CD10320001B1D
:1028900007E0002804DB8600AE59002E00D001229C
:1028A000401C0328F5DB081B02D588002A5004E0F1
:1028B0008000285810438A00A850491EE3D51C46C2
:1028C0000A98002802980CD0002800D00120019915
:1028D000019A490508430121D20AC902D202019294
:1028E00000E00121109B0122D207012B02D0002B16
:1028F00003D013E0002807D11FE0904204D8904293
:102900000CD1019B0B4209D0019B5918019105D1B3
:102910000099491C009101D1641C009200280CD040
:10292000102108460020C046002F06D0119800282C
:1029300003D0082108460020C04608980999019A4A
:10294000009B006809684840C10F0798C9072143E8
:1029500082600AC00BB0F0BD00B585B00193009253
:102960000A460146002302A8FFF7FCFD02A807C89B
:1029700005B000BDFFB50A461F4685B00799019313
:1029800001230091014602A8FFF7ECFD029903988C
:10299000049ECA0F4900D20700920F2249089202F2
:1029A0008C1A0021002800DB0C46450013486D08F6
:1029B000844214D3079A002A04DA441E0026104DDC
:1029C000F64302E004460D460E461021084600205C
:1029D000C046002F03D0042108460020C046200531
:1029E000E90A0843009908436905F20A1143ADE674
:1029F00002C0FFFF013C0000FF3F0000FF07000096
:102A0000FFFFFF7F00B585B0019300920A460146A3
:102A1000002302A8FFF79CFE02A807C8A8E7FFB59D
:102A20000A461F4685B0079901930123009101468C
:102A300002A8FFF78DFE02990398049ECA0F490071
:102A4000D20700920F22490892028C1A0021002816
:102A500000DB0C46450011486D08844214D3079AE8
:102A6000002A04DA441E00260D4DF64302E0044617
:102A70000D460E46102108460020C046002F03D008
:102A8000042108460020C0462005E90A08430099B1
:102A900008436905F20A114358E60000FF070000E9
:102AA000FFFFFF7FC06880210840704710B5434892
:102AB0005421FDF7FBFC42485421FDF7F7FC414847
:102AC0005421FDF7F3FC40483C493D4B404A01602E
:102AD0003E4803603B4810605A1C0A65411C19655A
:102AE000012101653C48354A3AA1784400F0B6F925
:102AF000002804D1384878440C3800F051FA38489E
:102B00002F4A36A1784400F0A9F9002804D13448AE
:102B100078440C3800F044FA32482A4A2FA178440D
:102B200000F09CF9002804D12E4878440C3800F0BD
:102B300037FA40232148DC000021224600F068F9E2
:102B4000002804D0244878445C3800F029FA1C4856
:102B500022464023002100F05BF9002804D02048E1
:102B600078445C3800F01CFA1648224610230021F5
:102B700000F04EF9002804D01A4878445C3800F080
:102B80000FFA10BD0F4870B5006D44080B48640083
:102B900000F0D8F90A4800F0D5F90A4800F0D2F957
:102BA00009E0206D450820466D0000F0CBF9204675
:102BB00000F008F92C46002CF3D170BD3400002041
:102BC00088000020DC000020280000202C000020CD
:102BD00030000020720000004E3B00007700000033
:102BE000383B0000223B000070B516460C460546F7
:102BF00000F0E0F80368FF200230C05C012807D035
:102C0000FF2C0ED8185D00280BD001202C7070BD51
:102C1000FF333246214608331868C31828469847C0
:102C200070BD0020C04370BD01468008081A02092B
:102C30001018020A1018020C1018C008820012188E
:102C40005200891A01E0401C0A390A29FBD2704758
:102C5000C80212D54803400F002804D0C803C0435F
:102C6000012188407047EFF3008000010009032133
:102C70000907084380F30088704700207047000070
:102C800010B500200249029A00F0D4F910BD0000EE
:102C90000000F87F70B505464800440D124B002037
:102CA000002C0AD0634008D09A4206DA6642B2424B
:102CB00003DD12054019514170BD002C08D0002BD6
:102CC00009D0C90FC907002AF6DB084A114370BDB5
:102CD000C90FC90770BD28460A03104302D000205F
:102CE000034970BD284670BDFF0700000000F07F5B
:102CF0000000F87F10B5024800F09CF910BD0000FC
:102D00000000C07F0EB50191009000F051FB0290D1
:102D100069460120ABBE0EBD08B569460090022091
:102D2000ABBE08BD1FB56B4607C369460520ABBEE9
:102D300004B010BD1FB56C460FC469460620ABBE7B
:102D4000F6E708B5694600900920ABBE08BD1CB582
:102D500000900A2001916946ABBE1CBD704708B5C2
:102D6000694600900C20ABBE08BD000000487047CB
:102D7000300100207546FFF7F9FFAE4605006946B1
:102D80005346C008C000854618B020B5FDF77AFA52
:102D900060BC00274908B6460026C0C5C0C5C0C5EE
:102DA000C0C5C0C5C0C5C0C5C0C5403D49008D46F1
:102DB0007047000010B5FFF7CDF8001D10BD00BF33
:102DC0001D32000070B50446051F00F063F900686D
:102DD000002C1AD0446801E020466468002C01D021
:102DE000AC42F9D301680A18AA4204D12A68054600
:102DF0008918016000E0456028684119A14205D1A9
:102E00006168696021684018286070BD6C6070BDA1
:102E100070B5C468A50713D0650211D4D51FF93D5C
:102E20000AD0FF3D6D1E07D0FF3DFF3D022D07D1AB
:102E300001462431012305E0074E5D1EB54201D352
:102E4000012070BD0161C36141600F2109028C4303
:102E50001443C460002070BDFFFFFF00F7B51646A5
:102E60000C46104600F06EF82078611C61280AD0EC
:102E7000722802D0772839D102E00125002404E02D
:102E80000225042401E02D4D0824022203230127FA
:102E90000878491C2B2806D0622807D02039C87F23
:102EA000742807D008E01D431443F1E704200543CC
:102EB0003C43EDE71020044300982146FFF722FF32
:102EC000411C13D00021316171600121F56049027C
:102ED000F1617061200704D530460222002100F024
:102EE00055F9306D384330653046FEBD0020FEBDDB
:102EF000F8B50D460646124C206DC10704D04108B6
:102F000004D044086400F7E7224610E0542000F0A3
:102F10000BF9070010D07908206D490001221143F8
:102F20000843542120653846FDF7C0FA3A46294641
:102F30003046FFF793FFF8BD0020F8BD0280000087
:102F400034000020FEB50446466900690F4F019029
:102F5000E56800200090A80707D0204600F0C0F9DF
:102F60003046FFF7D9FE002801DA3846FEBD2805B5
:102F700002D50198FFF726FF4C212046FDF796FA6F
:102F8000206D4008400020650098FEBDFFFFFFFF58
:102F900010B50446C046C0462046FDF763F910BD93
:102FA00010B500F0EBF900F0E3F910BD024670B582
:102FB0000A4392072AD11E4DEE0104C808C9541BCA
:102FC0009443344017D0D0B2D9B2401A21060143FD
:102FD00010D190B299B2401A210401430AD11002D3
:102FE0001902000A090A401A2102014302D1100EF7
:102FF000190E401A70BD9A42DFD010BA19BA884231
:1030000001D9012070BD0020C04370BD02780B784B
:10301000401C491C002A09D09A4207D102780B783B
:10302000401C491C002A01D09A42EFD0D01A70BD32
:103030000101010110B50C461107090F092904D03F
:103040000A290AD008290CD104E011460820FFF70C
:10305000FFFD06E0510606D501E0510601D501202D
:10306000C007214610BDD10607D501010909CC08CA
:103070004907000E0006044309E0410F20024907FA
:10308000000A0143200E00061D22D14101430846DB
:10309000E7E77047004870473801002070477047E5
:1030A0007047704738B504460A4600206946C04656
:1030B000C046002805D002462046009900F0A7F936
:1030C000012038BD10B5012000F0F6F910BDF8B5AB
:1030D000C046C046054600200C461020C0460646A5
:1030E000A819A0420DD9324669460020C046C04604
:1030F000070001D100F0E0F90098A04200D0054699
:10310000C419FFF7C7FFF61D07460560F008C000A9
:103110004619284600F074F9B44204D031463868A4
:10312000A21B00F074F9F8BD70B50646FFF7B2FFB8
:10313000056830460B30C408E400B44201D80020D2
:1031400070BD68682A46002818D00168A14211D3D2
:103150000B46214608318B4208D3436801194B6066
:1031600003681B1B0B605160046001E04168516003
:10317000001D70BD024640680028E6D12146284661
:10318000FFF790FF0028DCD170BD0000F8B50446C1
:1031900016460D464769007B800730D03846FFF75A
:1031A000D0FD00282BD132461026002A25D0012A36
:1031B00002D0022A23D104E0204600F042F945194A
:1031C0001BE03846FFF7CBFDE16831430028E160A2
:1031D00004DA204600F054F80120F8BDC9030BD5ED
:1031E0006268E16A914200D81146A2698918226991
:1031F000891A814200DD08462D18002D01DA0220CF
:10320000F8BDE16A6068E268814206D29103E0623B
:1032100003D5012149048A433243A669AE4211DC39
:10322000E16A814201D90B4600E003469F192369F8
:10323000FF1AAF4206DD814201D90F4600E0074682
:103240009F4206D1202002430020A060A56220609A
:103250000DE0AD1BE669AE1B8142A66000D90846B1
:10326000C01A281A20605819606020208243034841
:1032700002400020E26040342072F8BDBFCFD7FF8B
:10328000C1688022114392039143C1600021816093
:1032900001607047F7B514460E463348D568576944
:1032A000054209D03846A169FFF751FD002811DB1E
:1032B0002D48C0430540E5602B463246384600990C
:1032C000FFF730FD4200A1695208B21A89180028A0
:1032D000A16104D02046FFF7D3FF0020C043FEBD0C
:1032E00070B504460569C06A6168884200D808461E
:1032F000E1680522D2049143E160C90314D5A842D4
:1033000009D02246411B2846FFF7C4FF002802D0FF
:103310000020C04370BDE56200206560A060E068E9
:10332000012109048843E060002070BD10B5044607
:10333000C06820218843E060A16AA06988420ED05D
:103340002046FFF7CDFFE0680321090388431021E1
:103350000843E060A06AA0612069E0626060034900
:10336000E0680840E06010BD10000200BFBFFFFF32
:1033700010B5002801D000F03DF810BD10B5014691
:1033800002A000F07FF8012010BD00005349475211
:10339000545245443A2052656469726563743A2018
:1033A00063616E2774206F70656E3A200000000024
:1033B00030B5441C03E00178401C00290DD0810782
:1033C000F9D10B4BDD0104C8D11A91432940FAD041
:1033D000001B0A0603D0C01E30BD001B30BD0A040E
:1033E00001D0801E30BD0902FCD0401E30BD00005F
:1033F0000101010101491820ABBEFEE726000200D1
:10340000002101604160806070471020704710B556
:103410000346406801E003464068002801D0884226
:10342000F9D31868C3188B4206D0CB1CD808C0004B
:10343000001D411A521A0146081D0A60FFF7C2FC1E
:1034400010BD10B50146C268900703D0900607D59D
:10345000886A0AE0FEF782FD01210160881E10BD26
:103460008B694868C0180B69C01A40310B7A002B71
:1034700002D0497A401A10BD1103FCD50028FADDAC
:10348000401E10BD70B505460C460A2000E06D1CBC
:1034900000F018F8002D06D028780028F7D102E0B7
:1034A000641C00F00FF8002C02D020780028F7D11F
:1034B0000A2000F007F870BD10B500F009F8FFF71A
:1034C00057FF10BD08B5694608700320ABBE08BDA4
:1034D00010B5012805D0002103A0FFF7D3FF01207C
:1034E00010BD09A1F8E7000053494752544D454D1E
:1034F0003A204F7574206F662068656170206D6595
:103500006D6F7279000000003A2048656170206D8F
:10351000656D6F727920636F727275707465640087
:1035200030B5022A0AD28369D5000324AC40A343F4
:10353000D5000C46AC40234383610BE0C369941E65
:10354000E5000324AC40A343941EE5000C46AC40C8
:103550002343C36130BD416901221143416170477A
:1035600070B505460C46052600BF6248854201D16C
:10357000012000E00020002801D100BFFEE700BFCD
:1035800000BFA06800280BD0A068102808D0A06851
:10359000202805D0A068402802D0A068602801D16A
:1035A000012000E00020002801D100BFFEE700BF9D
:1035B00000BF6069002808D0FF210131606988429E
:1035C00003D049006069884201D1012000E0002059
:1035D000002801D100BFFEE700BF00BF206901281D
:1035E00002D02069002801D1012000E0002000283D
:1035F00001D100BFFEE700BF00BF2068002805D052
:103600002068C02802D02068402801D1012000E0B5
:103610000020002801D100BFFEE700BF2068364926
:10362000C96AC02291430143334AD16200BF1020CE
:1036300000F090FB0120C00300F06CFBA069296B37
:10364000090A09020143296300BFA068202804D0A9
:10365000402803D0602807D101E000BF00BF284602
:10366000A16800F07BF90BE0A06829681022914363
:103670000143296000BF0021284600F06FF900BF18
:1036800000BFE068E96A090C09040143E96200BF70
:10369000606929680322120291430143296000BF37
:1036A0006068A96A090C09040143A96200BF206986
:1036B000012806D100BF286880210843286000BF88
:1036C00006E000BF286880218843286000BF00BF53
:1036D0002846FFF740FF00E0761E064800F00EF88F
:1036E000002801D1002EF7D100BF01200149086157
:1036F00000BF70BD00B001404002004001460869B3
:10370000C007C00F012250405040704710B5026AF8
:103710008C000123A3409A43026210BD10B5026AD7
:103720008C000423A3409A43026210BDF8B50646FC
:103730000D46144605270120009000BF86488642AA
:1037400001D1012000E00020002801D100BFFEE7E8
:1037500000BF00BF2068002814D02068102811D0B6
:10376000206820280ED0206830280BD02068402800
:1037700008D02068502805D02068602802D0206832
:10378000702801D1012000E00020002801D100BFF5
:10379000FEE700BF00BFA069012802D0A069002891
:1037A00001D1012000E00020002801D100BFFEE788
:1037B00000BF00BFE068002802D0E068022801D105
:1037C000012000E00020002801D100BFFEE700BF7B
:1037D00000BF6069012802D06069002801D1012082
:1037E00000E00020002801D100BFFEE700BF00BFBD
:1037F000606A012802D0606A002801D1012000E03F
:103800000020002801D100BFFEE700BF00BFA06874
:10381000012802D0A068002801D1012000E000208A
:10382000002801D100BFFEE700BF00BF606801288B
:1038300002D06068002801D1012000E000200028AB
:1038400001D100BFFEE700BF00BF206A002804D0FE
:10385000FF210131206A884201D1012000E00020CF
:10386000002801D100BFFEE700BF00BFA06A00280A
:1038700004D001214902A06A884201D1012000E060
:103880000020002801D100BFFEE700BF00BF206973
:10389000002802D02069082801D1012000E0002082
:1038A000002801D100BFFEE700BF29463046FFF7E0
:1038B0002DFF29463046FFF731FFE068316AAB0043
:1038C00002229A409143AB0002469A401143316272
:1038D00000BF206A71686B00FF2201329A40914359
:1038E0006B0002469A401143716000BFA06A716884
:1038F0006B00012252029A4091436B0002469A40AB
:103900001143716000BF2069316AAB0008229A4000
:103910009143AB0002469A401143316200BF2A46F0
:1039200000213046FFF7FCFD22462946304600F0D4
:10393000C3FF3046FFF70FFE00E07F1E0648FFF78B
:10394000DDFE002801D1002FF7D100BF0120024980
:10395000086100BF0098F8BD00B001400268602314
:103960009A430A43026070470648006904210843ED
:1039700004490861084600690121084301490861BA
:103980007047000000E000E0826A8BB29A438262D6
:10399000704702688BB29A430260704782688BB2AC
:1039A0009A438260704742688BB29A434260704784
:1039B000026A8BB29A43026270470000F8B506466D
:1039C0000C460027002500BF654886420BD064489E
:1039D0004030864207D062488030864203D060483B
:1039E000C030864201D1012000E00020002801D132
:1039F00000BFFEE700BF00BF2068002805D9594975
:103A00002068884201D8012000E00020002801D170
:103A100000BFFEE700BF00BF6068032808D06068F1
:103A2000002805D06068012802D06068022801D112
:103A3000012000E00020002801D100BFFEE700BF08
:103A400000BFA068012802D0A068002801D1012091
:103A500000E00020002801D100BFFEE700BF00BF4A
:103A6000E068002802D0E068012801D1012000E0D0
:103A70000020002801D100BFFEE700BF80203A49A6
:103A8000896A0143384A916200BF62E00121B9406E
:103A9000206808400546002D5AD06068032812D1DE
:103AA00029463046FFF775FF29463046FFF77BFF72
:103AB00029463046FFF772FF00BFB06AA9B208433B
:103AC000B06200BF2EE029463046FFF75DFF606818
:103AD000002806D100BF3068A9B20843306000BF9B
:103AE00003E029463046FFF754FFA068002804D1C0
:103AF00029463046FFF752FF06E000BFB068A9B282
:103B00000843B06000BF00BFE068002806D000BFD7
:103B10007068A9B20843706000BF03E029463046D0
:103B2000FFF741FF606802280DD12069012806D106
:103B300000BF306AA9B20843306200BF03E02946E3
:103B40003046FFF735FF29463046626800F00EF830
:103B50007F1C2068F840002898D10120F8BD0000A3
:103B6000000C0040FFFF00000002004030B5C368B9
:103B70000C464C4365006419A3430C464C43544324
:103B80002343C36030BD0000F0B587B005460C4646
:103B900000200690002600BF5148854201D1012037
:103BA00000E00020002801D100BFFEE700BF00BFF9
:103BB000206800280DD0012109042068884208D01F
:103BC00049002068884204D0032109042068884203
:103BD00001D1012000E00020002801D100BFFEE754
:103BE00000BF00BF6068002805D03E496068884279
:103BF00001D8012000E00020002801D100BFFEE72D
:103C000000BF0120000600F095F8012000053649AC
:103C1000C96A0143344AD16200BF20681146C96AAB
:103C200003221204914301432F4AD16200BF20684E
:103C3000002807D09113401A08D0401A0AD0401A21
:103C400010D10BE000F0CAF806900CE000F094F9F7
:103C5000069008E000F0DAF9069004E000F0AEF912
:103C6000069000E000BF00BF606841000698FCF7C6
:103C70001FFC461E304669691C4A1140020411436C
:103C8000696100BF00BF6969490A4902014369616E
:103C900000BFF005C00DFDF74CF9002201239B0782
:103CA00001910090FCF79EFE0022114B03910290BF
:103CB000FCF768FE05910490FDF7EEF80746E86909
:103CC000400A40023843E86100BF00BF0448006872
:103CD000012108430249086000BF012007B0F0BD80
:103CE0000024014040420F0040020040FFFF00FE60
:103CF0000000E03F0146C8681022104000097047EC
:103D00000269520852000A430261704710B5FFF77A
:103D10002BFE10BD0249C96A0143014AD1627047B6
:103D2000400200400249C96A0143014AD16270471A
:103D3000400200400249096B0143014A1163704788
:103D4000000200400249096B0143014A11637047B8
:103D5000000200400249496B0143014A5163704728
:103D60000002004010B5002400BF1B48C0680721B6
:103D70000902084005221202811A904218D006DC7E
:103D800000280DD001218902401A1DD10CE0C81F66
:103D9000F938002810D0FF380138002814D10FE07E
:103DA00000F034F9044613E000F030F944080FE065
:103DB00000F02CF984080BE000F028F9C40807E0B3
:103DC00000F024F9040903E000F020F9044600BFE4
:103DD00000BF204610BD00000002004010B50024C6
:103DE00000BF1B48C06807210904084005221204CF
:103DF000811A904218D006DC00280DD001218904D8
:103E0000401A1DD10CE001200004081A10D0012135
:103E10000904401A14D10FE0FFF7A4FF044613E091
:103E2000FFF7A0FF44080FE0FFF79CFF84080BE0BA
:103E3000FFF798FFC40807E0FFF794FF040903E0C9
:103E4000FFF790FF044600BF00BF204610BD0000F2
:103E50000002004010B5002400BF1B48C0680721C5
:103E6000C90408400522D204811A904218D006DC09
:103E700000280DD001214905401A1DD10CE0012078
:103E8000C004081A10D00121C904401A14D10FE04F
:103E9000FFF768FF044613E0FFF764FF44080FE0F4
:103EA000FFF760FF84080BE0FFF75CFFC40807E042
:103EB000FFF758FF040903E0FFF754FF044600BF73
:103EC00000BF204610BD00000002004070B5002475
:103ED000002500BF2648806902210840002802D042
:103EE000022807D103E000F047F8044606E0214825
:103EF000046803E000F040F8044600BF00BF00BFC4
:103F00001B488069702108400107090F00291FD153
:103F10000011030001F0B6FA080506080A0C121495
:103F20001A1C16E0640814E0A40812E0E40810E08B
:103F30000C212046FCF7BCFA04460AE0240908E0FC
:103F400018212046FCF7B4FA044602E0640900E0B8
:103F500000BF00BF00BF064880697F2109040840F8
:103F6000000C451C204668430446204670BD0000F6
:103F70000002004020000020002000BF0B4909691A
:103F80000F2212041140002906D001221204891ABE
:103F900004D0891A06D103E0054805E0054803E08E
:103FA000054801E0024800BF00BF70470002004022
:103FB00000127A000024F40000366E01002000BFD9
:103FC0000D49496A032212041140002908D0012238
:103FD0001204891A06D0891A06D0891A08D105E078
:103FE000064807E0064805E0064803E0064801E009
:103FF000024800BF00BF70474002004000093D007A
:1040000040420F0020A1070090D0030010B500240B
:1040100000BF1648C0684007400F030001F032FAA5
:104020000805090C1E10141B171EFFF7A5FF0446F8
:1040300018E00F48046815E0FFF748FF044611E058
:10404000FFF7BCFF04460DE00A4804680AE000F0F0
:1040500013F8044606E07D24240203E0FFF78CFFFA
:10406000044600BF00BF204610BD00000002004013
:10407000200000201C00002000BF0548C068082167
:104080000840002801D1034870470348FCE70000BE
:1040900000020040006CDC0200879303F8B505467F
:1040A0000C46002700200090002600BFA048854253
:1040B00008D0A048854205D09F48854202D09F483D
:1040C000854201D1012000E00020002801D100BF7D
:1040D000FEE700BF00BF2068002814D02068042835
:1040E00011D0206808280ED020680C280BD020683A
:1040F000002808D02068012805D02068022802D0B6
:104100002068032801D1012000E00020002801D10F
:1041100000BFFEE700BF00BFA068002808D0A0686D
:10412000402805D0A068802802D0A068C02801D10E
:10413000012000E00020002801D100BFFEE700BF01
:1041400000BF2069002805D02069102802D020690E
:10415000202801D1012000E00020002801D100BF6B
:10416000FEE700BF00BFE068002804D0FF21013156
:10417000E068884201D1012000E00020002801D140
:1041800000BFFEE700BF00BF6069002808D060697B
:10419000022805D06069012802D06069032801D196
:1041A000012000E00020002801D100BFFEE700BF91
:1041B0005F48854228D120686149C96A8908890019
:1041C00001435F4AD16200BF2068002806D0012861
:1041D00008D002280AD0032810D10BE0FFF7FEFD1B
:1041E00000900BE0FFF7C8FE009007E0FFF70EFF1E
:1041F000009003E0FFF7E2FE009000BF00BF61689F
:104200000098FCF755F9461E4A48854228D1206897
:104210004B49C96A0C2291430143494AD16200BF0C
:104220002068002806D0042808D008280AD00C28C6
:1042300010D10BE0FFF7D2FD00900BE0FFF79CFEE2
:10424000009007E0FFF7E2FE009003E0FFF7B6FE04
:10425000009000BF00BF61680098FCF729F9461E76
:104260003348854206D18015FFF76CFDA815FFF78E
:1042700059FD26E02F48854206D14015FFF762FD23
:104280006815FFF74FFD1CE02B4885420BD18014C9
:10429000FFF758FDFFF7DEFD009061680098FCF71E
:1042A00007F9461E0DE0254885420AD14014FFF764
:1042B00049FDFFF7CFFD009061680098FCF7F8F822
:1042C000461E207DC007C00F002806D000BF28680A
:1042D00001210843286000BF00BF02216069084037
:1042E000002805D000BF28680843286000BF00BF31
:1042F00000BFA869000C00043043A86100BFE0685B
:104300002968FF22013291430143296000BFA06860
:104310002968C02291430143296000BF20692968B0
:10432000302291430143296000BF01273846F8BD80
:10433000001C01400020014000A0014000A40140F9
:104340004002004000BF0A48806B0221084040083C
:1043500000280CD000BF0648C06B08404008002869
:1043600005D000BF01200249C86300BF00BF7047ED
:1043700000A80140FFB581B01F460A9D802D02DDD7
:10438000FF2005B0F0BD002633E00020009001239F
:1043900001A807C800F092FB002802D0012000907D
:1043A0001AE0002415E0681EA04204DD0021134835
:1043B000FFF7A6FC03E001211048FFF7A1FC381924
:1043C00000F01EF8002802D00120009003E0601CDD
:1043D000C4B2AC42E7DB00BF022000F033F8002893
:1043E00001D0012000900098002800D103E0701C4B
:1043F000C6B2032EC9DB00BF0098C2E7002401400B
:10440000014600BF0E484068082210430C4A506025
:1044100000BF00BF00BF0A48C068C007C00F01222C
:10442000504050400028F5D000BF0120044AD06021
:1044300000BF00BF10468069C0B2087000207047FE
:1044400000240140F8B507460024002F04D0012FB6
:1044500016D0022F3FD127E000BF2148406801213C
:1044600008431F49486000BF00BF1D48FFF742FCDA
:104470000546641C012D02D01A488442F5D12BE078
:1044800000BF17484068022108431549486000BF33
:1044900000BF1348FFF72EFC0546641C012D02D017
:1044A00010488442F5D117E000BF0D484068042150
:1044B00008430B49486000BF00BF00BF0848C06800
:1044C00008210840C60800BF641C002E02D1054820
:1044D0008442F2D100E000BF00BF0020F8BD000020
:1044E00000240140FFFF0500014600BF124880691B
:1044F000000A00020843104A906100BF00BF00BFDD
:104500000D48C0680222104040080028F7D000BFC4
:104510000220094AD06000BF00BF1046C0680422D4
:1045200010408008002800D1704700BF0420024AD4
:10453000D06000BF0120F7E70024014010B590B023
:10454000044604200B9002200C9000200D900E9049
:1045500001200F900BA91248FFF730FA10200B90A2
:1045600002200C9000200D900E900F900BA90C488B
:10457000FFF724FA602000900120019002900020B3
:1045800003900490059006900794089009900A9073
:104590006A4600210348FFF7C9F810B010BD0000BB
:1045A000400C004000B0014010B590B00446082017
:1045B0000B9002200C9000200D900E9001200F9087
:1045C0000BA91248FFF7FAF920200B9002200C905B
:1045D00000200D900E900F900BA90C48FFF7EEF9FC
:1045E0006020009001200190029000200390049030
:1045F000059006900794089009900A906A46012158
:104600000348FFF793F810B010BD0000400C0040C5
:1046100000B0014010B590B0044640200B9002203D
:104620000C9000200D900E900F900BA91248FFF7F0
:10463000C5F9FF2001300B9002200C9000200D9056
:104640000E9001200F900BA90B48FFF7B7F96020DF
:1046500000900120019002900020039004900590AA
:1046600006900794089009900A906A460221034830
:10467000FFF75CF810B010BD400C004000B00140E6
:1046800000B587B0002000903F20019000200290EC
:104690006320039001200490002005900690694655
:1046A0000248FEF75DFF07B000BD000000B001400A
:1046B00010B555204449896B090A09020143424A51
:1046C000916300BF0020114609690F221204914333
:1046D00001433D4A116100BF00BF1046006901213E
:1046E00008431146086100BF00BF084680694008C2
:1046F0004000886100BF0020896902229143014384
:10470000314A916100BF302011468969702291437E
:1047100001432D4A916100BF3F20114689697F22E4
:104720001204914302041143274A916100BF002003
:1047300011468969082291430143234A916100BFD0
:1047400000BF10468069012108431146886100BFFF
:1047500000BF00BF1C48806980210840C0090028B4
:10476000F7D0022019490968890889000143174ACE
:10477000116000BF00BF1449C968C908C9000143DE
:10478000114AD16000BF00201146C96807221202F9
:10479000914301430C4AD16000BF00BF1146C96874
:1047A0000722120491430143074AD16000BF00BFB2
:1047B0001146C9680722D20491430143024AD160DD
:1047C00000BF00F051FC10BD00020040001000408E
:1047D00010B5FFF755FF0020FFF7B0FE0020FFF7F0
:1047E000E3FE0020FFF716FF00F004F800F030F8B9
:1047F00010BD000000B587B00120C0020290022069
:104800000390002004900590069002A90D48FFF740
:10481000D5F80120000302900220039000200490AC
:104820000590069002A90748FFF7C8F80120000488
:1048300000900548019069460448FFF7A5F907B0C4
:1048400000BD0000000C0040409C0000002401401E
:1048500000B58BB001204003069002200790002095
:10486000089009900A9006A91148FFF7A7F80120BF
:1048700080030690022007900020089009900A907B
:1048800006A90B48FFF79AF800200090E1204002AB
:1048900001904020029000200390102004900320FB
:1048A000059069460348FFF7F9FB0BB000BD000017
:1048B000000C0040001C0140F8B504460D461646A9
:1048C000012000902846316802280AD2A269C70058
:1048D0007023BB409A43C3000F469F403A43A261F6
:1048E0000BE0E269831EDF007023BB409A43831E06
:1048F000DB000F469F403A43E26100BF706A012827
:1049000012D12846022806D2A169C30080229A400B
:104910001143A16106E0E169821ED30080229A4022
:104920001143E16100BF12E02846022806D2A169C6
:10493000C30080229A409143A16106E0E169821E92
:10494000D30080229A409143E16100BF00BF7069AB
:10495000012812D12846022806D2A169C3000422E8
:104960009A401143A16106E0E169821ED30004224E
:104970009A401143E16100BF12E02846022806D2A6
:10498000A169C30004229A409143A16106E0E16954
:10499000821ED30004229A409143E16100BF00BF10
:1049A000B069012812D12846022806D2A169C300A5
:1049B00008229A401143A16106E0E169821ED300FA
:1049C00008229A401143E16100BF12E02846022804
:1049D00006D2A169C30008229A409143A16106E072
:1049E000E169821ED30008229A409143E16100BF31
:1049F00000BFB068012808D100BF206AAA000421C6
:104A000091400843206200BF03E029462046FEF79C
:104A100085FE7068012808D100BF206AAA00012124
:104A200091400843206200BF03E029462046FEF77C
:104A30006DFE002D06D0012D0CD0022D12D0032DBD
:104A400020D117E0F069616B090C0904014361632F
:104A500000BF1AE0F069A16B090C09040143A163CE
:104A600000BF12E0F069E16B090C09040143E16346
:104A700000BF0AE0F069216C090C090401432164BC
:104A800000BF02E00020009000BF00BF0098F8BD0A
:104A900000BF09494969490A49020143064A51616F
:104AA00000BF00BF00BF04498968022211404908C5
:104AB0000029F7D070470000001C0140FFB581B00D
:104AC00006460D46174600960020FFF7BBFC04463D
:104AD000002C02D0012005B0F0BD00BF1B4840688B
:104AE000082188431949486000BF0098FFF7FCFC83
:104AF0000446002C01D00220EDE7022F07D1281236
:104B0000FFF7F2FC0446002C01D00320E3E7E8B2F3
:104B1000FFF7EAFC0446002C01D00320DBE70498F1
:104B2000012811D1FFF78EFC0446002C01D005208E
:104B3000D1E70122009911430846FFF7D5FC04464E
:104B4000002C01D00520C6E70020C4E70024014066
:104B50000FB400B59BB01DA8019002A8019A1C9942
:104B6000FBF7A2FB0020019002A800F004F81BB0A4
:104B700008BC04B0184710B50346002404E0185DD3
:104B8000FFF786FF601CC4B2185D0028F7D110BD86
:104B9000F7B598B01A98FCF7F3FA0791069001F070
:104BA00095F90B910A901898FCF7EAFA0991089088
:104BB0000B9B0A9AFCF7C0F90F910E901A98FCF71C
:104BC000DFFA0791069001F087F80B910A90199887
:104BD000FCF7D6FA099108900B9B0A9AFCF7ACF9FE
:104BE0000D910C900F9B0E9AFBF7D9FE119110902E
:104BF000FBF70EFD16901A98FCF7C2FA0791069083
:104C000001F06AF80B910A901898FCF7B9FA09912B
:104C100008900B9B0A9AFCF78FF90F910E901A9847
:104C2000FCF7AEFA0791069001F050F90B910A904B
:104C30001998FCF7A5FA099108900B9B0A9AFCF7C2
:104C40007BF90D910C900F9B0E9AFBF79BFE119137
:104C50001090FBF7DDFC1590F4480068FCF790FA23
:104C60000F910E901599084601F07AFA089016995E
:104C7000084601F075FA0790089901F02BFA09909F
:104C8000FCF77EFA0B910A900B990A9801F06CF9E7
:104C90000D910C900F9B0E9AFBF7A4FE11911090B2
:104CA000FBF7B6FC17901798FCF76AFAE04AE14B5D
:104CB0001191109001F0DAF901D2DF48179017989E
:104CC000FCF75EFADA4ADD4B1191109001F09CF985
:104CD00001D2DB4817900021189801F099FA11D2FF
:104CE0001A98FCF74DFAD74AD74B0D910C90FBF769
:104CF00049FE0F910E90FBF78BFC119000F01AFF0C
:104D00001A9010E01A98FCF73BFACE4ACE4B0D9160
:104D10000C90FBF744FE0F910E90FBF779FC11907D
:104D200000F008FF1A901A98FCF72AFAC74AC84BF5
:104D30000D910C90FBF756FE0022C64B0F910E9082
:104D4000FBF720FE11911090FCF770F807461798BA
:104D5000FCF716FA0F910E901A98FCF711FA0791CA
:104D600006903846FCF7DDF8B84AB94B039102903B
:104D7000FCF7E2F805910490079B069AFBF70FFEFB
:104D80000991089001F0A2F8B34AB44B0B910A9034
:104D9000FCF7D2F80D910C900F9B0E9AFCF7CCF813
:104DA00011911090FBF734FC13901798FCF7E8F979
:104DB0000F910E903846FCF7B4F80022A54B0191F4
:104DC0000090FBF7ECFDA14AA14B03910290FCF788
:104DD000B3F8079106901A98FCF7D2F90591049060
:104DE000079B069AFBF7DBFD0991089001F06EF82E
:104DF000994A9A4B0B910A90FCF79EF80D910C90F2
:104E00000F9B0E9AFCF798F811911090FBF700FC9D
:104E100012907F20C005139901F026FA1190129983
:104E200001F022FA14903B0000F02CFB07C5052589
:104E3000456585A5C500012189071498FCF7CAF9C5
:104E400011901299139801F045F91090119901F001
:104E500041F90446012189071498FCF7BBF9119028
:104E6000129901F037F90546012189071498FCF7DA
:104E7000B1F90646A3E0012189071498FCF7AAF9C5
:104E80001190139901F026F904460121890714981D
:104E9000FCF7A0F911901299139801F01BF91090EA
:104EA000119901F017F90546012189071498FCF7BB
:104EB00091F9064683E0012189071498FCF78AF9E5
:104EC0000446012189071498FCF784F9119012997E
:104ED000139801F0FFF81090119901F0FBF80546C6
:104EE000012189071498FCF775F91190129901F0C6
:104EF000F1F8064663E0012189071498FCF76AF986
:104F00000446012189071498FCF764F9119013995C
:104F100001F0E0F80546012189071498FCF75AF9D9
:104F200011901299139801F0D5F81090119901F091
:104F3000D1F8064643E0012189071498FCF74AF9A5
:104F40001190129901F0C6F80446012189071498BE
:104F5000FCF740F90546012189071498FCF73AF956
:104F600011901299139801F0B5F81090119901F071
:104F7000B1F8064623E0012189071498FCF72AF9C5
:104F800011901299139801F0A5F81090119901F061
:104F9000A1F80446012189071498FCF71BF905467E
:104FA000012189071498FCF715F91190139901F064
:104FB00091F8064603E000240025002600BF00BF4C
:104FC0002749204601F0CCF81090FCF7B3F9119076
:104FD0002448406B010C09041198014321484163A6
:104FE00000BF1F49284601F0BBF81090FCF7A2F95A
:104FF00011901C48806B010C090411980143194859
:10500000816300BF1649304601F0AAF81090FCF702
:1050100091F911901348C06B010C090411980143D8
:105020001048C16300BF1BB0F0BD00000C000020A1
:10503000105839B4C876E23F46B6133FC876E2BF8F
:1050400046B613BFF4D64354FB21F93F40AF2D3889
:1050500052C1F03F0000F03F6B6058E87AB6FB3F6A
:105060000000C84200B0014010B55648C068400773
:10507000400F030000F006FA084C050A4C0F2F34CD
:10508000394C51480068514908605BE000F046F92E
:105090004E49086056E04B484030406A8003800F1C
:1050A000002806D0012808D002280AD0032810D1F1
:1050B0000BE04748454908600BE046484349086013
:1050C00007E045484149086003E044483F4908601B
:1050D00000BF00BF36E0424800683C49086031E04C
:1050E0007D200002394908602CE03648C06800077E
:1050F000C00F002802D0012808D103E03948334905
:10510000086003E038483149086000BF00BF19E07B
:105110002C4800690003000F00280DD0012802D0A0
:10512000022808D103E031482849086008E03048E7
:105130002649086004E000BF2E482449086000BFEB
:1051400000BF00BF00BF1F48C0684005400F0300FC
:1051500000F098F908050A0F14191F252B311B4878
:1051600000681A4908602BE0184800681749086071
:1051700026E0164800681549086021E013480068D9
:10518000124908601CE01148006840080F49086097
:1051900016E00E48006880080C49086010E00B48D3
:1051A0000068C008094908600AE00848006800096A
:1051B0000649086004E0054800680449086000BF2B
:1051C00000BF10BD0002004020000020240000208D
:1051D00000093D0040420F0020A1070090D00300CD
:1051E0001C000020006CDC02008793030024F40004
:1051F00000366E0100127A0010B500204249886125
:1052000005204006C8600846806A802108433E4960
:1052100088623E48C0680F21890408433B49C86042
:105220000020394948620846406A052109020843BE
:10523000354948627D24240100E0641E002CFCD125
:105240003148C0680121C90608432F49C860AA2017
:10525000886301202E4908600E2048600320C9049D
:1052600048602C480068000C2A490988C94389B263
:10527000884202D12748006800E040204006400EE6
:105280002149486123484068000C22498988C94364
:1052900089B2884202D11F48406800E040204006A1
:1052A000400E1949403188621A484038006A000CA3
:1052B00018494039098CC94389B2884203D115483D
:1052C0004038006A00E08020C0B20F4908620F48F1
:1052D0004068FF21813108430C4948600A48C06A90
:1052E000102108430849C8620B48C06B09150843E0
:1052F0000949C8630448C06A102188430249C8624A
:10530000FFF7B2FE10BD000000020040C00C0040DC
:1053100000A8014040FBFF1F0004004010B500241E
:105320002A4880698007C00F002802D0012817D1C1
:1053300013E0264800690003000F002809D0012867
:1053400002D0022804D101E0214C04E0214C02E00B
:1053500000BF214C00BF00BF02E02048046800BF2E
:1053600000BF1A4880694006400F030000F08AF829
:10537000080507090B0D13151B1D00BF15E0640878
:1053800013E0A40811E0E4080FE00C212046FBF72D
:105390008FF8044609E0240907E018212046FBF7AE
:1053A00087F8044601E0640900BF00BF0748806930
:1053B0004002400E401C4443044880690007C00F6F
:1053C000002800D06400204610BD0000000200400C
:1053D0000024F40000366E0100127A002000002044
:1053E00000BF1A484068FF2101310840000A002828
:1053F0000BD000BF154880680840000A002804D080
:1054000000BF124800691249087000BF0F48406889
:10541000C007C00F012148404840002814D000BFF9
:105420000A48806808404840484000280CD000BF27
:1054300001200649886000BF00BF08464068400858
:105440004000486000BF00BF70470000001C0140E2
:105450000A000020F8B5040C8BB2264682B25E43E7
:10546000104658430D0C370C36040021801916469F
:1054700079416E43370C36048019264679416E43D4
:105480008919F8BD30B47446641E2578641CAB429B
:1054900004D3635D5B00E31830BC18471D46F8E792
:1054A0004900CA020243100000D004204A0D01D076
:1054B00001221043044A490D914201D102210843BF
:1054C000012800D105207047FF070000F7B596B00E
:1054D00014460021A160D160179909914D00CD4972
:1054E0006D088D4205DC179961602060002019B0BD
:1054F000F0BDC949C94E8D4238DAD32709997F05D5
:105500000029C74A1799334617DDFBF748FAB54219
:1055100006D0C44AC44BFBF742FA6160206009E040
:105520003A46C14BFBF73BFAC04AC14BFBF737FA8F
:1055300061602060012019B0F0BDFBF723FAB5428D
:1055400006D0B84AB84BFBF71DFA6160206009E04D
:105550003A46B54BFBF716FAB44AB54BFBF712FACD
:10556000616020600020C04319B0F0BDB1498D4298
:10557000179977DC490049080746AF4AAF4B0491B9
:10558000FBF7DAFC0022AE4BFBF7FCF9FBF74EFC15
:105590000A90FBF7C6FCA24A334603910290FBF740
:1055A000CBFC3A46049BFBF705FA06460F469D4A9C
:1055B0009D4B03990298FBF7BFFC2A0D01250C9225
:1055C00032463B46FBF7F6F961602060032D39D087
:1055D0004800410D0C98401A69016918113981423F
:1055E00030DA98492801794408960D9008180497F4
:1055F0004368026803990298FBF79EFC02460B463B
:105600000791069004990898FBF7C9F906460F46DA
:10561000049B089AFBF7CEF9079B069AFBF7BFF9A4
:1056200005918949049079440D984018C3688268AF
:1056300003990298FBF780FC059B049AFBF7AFF9EE
:105640006D1CBDE70998002809DA01226068D207BD
:10565000504060600A9819B04042F0BD02E00A98DC
:1056600019B0F0BD09030122090B12050E9089182B
:105670001798109140007549400D40184111C0061F
:10568000C00E0D9113902021081A1490002006904E
:1056900005250790139800280D980CD0401982001A
:1056A0006B487844875813998F40101841681498B4
:1056B000C1400F4304E040198100664878444758D0
:1056C00010993846FFF7C6FE06460A9138460E99ED
:1056D000FFF7C0FE8A190A9B8A4201D2012100E02D
:1056E0000021C9188C46AF00694679188B684E684E
:1056F000C318834201D2012000E000209619361819
:10570000002802D0964202D903E0964201D201203D
:1057100000E00020624612184E6068468B60C2515D
:1057200028466D1E0028B5DC012102984907401863
:10573000800F1390029805998000039E049D0B91A1
:10574000FBF7EFFB074630460891FBF7F2FB1D2203
:10575000D243FDF79FFA10900F912846FBF7E9FB23
:105760003D22D243FDF796FA0E900D910B98FBF770
:10577000E0FB5D22D243FDF78DFA0B910C900D9B5F
:105780000E9AFBF7FFF80F9B109AFBF7FBF83A46CF
:10579000089BFBF7F7F800250E463A462846089B7B
:1057A000FBF7FDF80F9B109AFBF7F9F80D9B0E9A8B
:1057B000FBF7F5F80B9B0C9AFBF7FCF8264A274BF6
:1057C000FBF7BAFB07460D91254A264B3146284682
:1057D000FBF7B2FB3A460D9BFBF7D4F80F461522B8
:1057E0000C9092061D4B31462846FBF7A5FB3B4625
:1057F0000C9AFBF7C7F8179A002A05DA139A524257
:1058000013920122D207514061602060139819B0B1
:10581000F0BD0000FB21E93F7CD90240FB21F93FAC
:10582000000040543163621A61B4D03D7370032E9E
:105830008A19A33BFB21394183C8C96D305FE43F1E
:105840000000E03FA60E0000660E00000BFCFFFF0C
:105850001A0E0000000E0000182D4454FB21F93DE3
:105860003326A611460B113CF0B51FB44E00F920AB
:105870007608800584B00F46864204DA0498FBF768
:10588000D5FA002838D0049A3B4610461946FBF753
:1058900053FB044602462C480D460B46062178442D
:1058A00000F05CF822462B46FBF746FB0191009086
:1058B0003946079B069A0498FBF73EFB0746029180
:1058C00020462946019B009AFBF736FB3A46029B8D
:1058D000FBF765F8074600220091D243204629468F
:1058E000FDF7D8F9194A96420ADA3A46009BFBF7C7
:1058F00056F80022164B23E00020154909B0F0BDF0
:10590000144A964202DD0024134D03E001225205A1
:10591000B51A002422462B46FBF741F806460191B2
:1059200022462B4600200A49FBF739F80D4604466B
:105930003A463046009B0199FBF731F822462B4648
:10594000FBF738F809B0F0BDBE0B00003333D33F8E
:105950000000F03F0000E93F0000D23FF8B50446E8
:105960004F1EC8000838211815461E4608684968A9
:105970003A4606239A4310D02A463346FBF7DCFA10
:105980003A46D200083AA3181A687F1E5B68FAF7F5
:10599000F9FF06223B469343EED1022F23D0042F7A
:1059A00011D0062F2FD12A463346FBF7C5FAE36AFA
:1059B000A26AFAF7E7FF2A463346FBF7BDFA636AA5
:1059C000226AFAF7DFFF2A463346FBF7B5FAE369A6
:1059D000A269FAF7D7FF2A463346FBF7ADFA6369A7
:1059E0002269FAF7CFFF2A463346FBF7A5FAE368A8
:1059F000A268FAF7C7FF2A463346FBF79DFA6368A9
:105A00002268FAF7BFFFF8BDF0B51FB4054648009D
:105A10000C46F9214008890586B088420BDA2846F1
:105A20002146FFF73DFD042801D100F071F828461A
:105A300021460BB0F0BD2A46234610461946FBF717
:105A40007BFA06460F462A462346FBF775FA009076
:105A50002548019132463B4605217844FFF77EFFF9
:105A6000029010980391002829D0204A204B0199D8
:105A70000098FBF761FA0490059168460FC8FBF7A0
:105A80005BFA002201910090D24309990898FDF732
:105A900001F9019B009AFAF782FF32463B46FBF779
:105AA0004BFA099B089AFAF77AFF059B049AFAF7D2
:105AB00076FF2A462346FAF77DFF0BB0F0BD0B4672
:105AC00030463946029AFBF737FA084A084BFAF78C
:105AD00059FF019B009AFBF72FFA2A462346FAF753
